:100000000C9423040C944B040C944B040C944B045C
:100010000C944B040C944B040C944B040C944B0424
:100020000C944B040C944B040C94120B0C94810B09
:100030000C944B040C944B040C944B040C944B0404
:100040000C944B040C944B040C944B040C944B04F4
:100050000C944B040C944B040C944B040C94B30D73
:100060000C944B040C944B040C944B040C944B04D4
:100070000C944B040C944B040C944B040C944B04C4
:100080000C944B040C944B040C944B040C944B04B4
:100090000C944B040C944B040C944B040C944B04A4
:1000A0000C944B040C944B040C944B040000000083
:1000B000003E5B4F5B3E3E6B4F6B3E1C3E7C3E1CEE
:1000C000183C7E3C181C577D571C1C5E7F5E1C0034
:1000D000183C1800FFE7C3E7FF0018241800FFE7EB
:1000E000DBE7FF30483A060E2629792926407F05AE
:1000F0000507407F05253F5A3CE73C5A7F3E1C1CC4
:1001000008081C1C3E7F14227F22145F5F005F5F83
:1001100006097F017F006689956A6060606060946F
:10012000A2FFA29408047E040810207E2010080874
:100130002A1C08081C2A08081E101010100C1E0C7F
:100140001E0C30383E3830060E3E0E060000000011
:100150000000005F00000007000700147F147F14F8
:10016000242A7F2A1223130864623649562050003D
:1001700008070300001C2241000041221C002A1C29
:100180007F1C2A08083E0808008070300008080814
:100190000808000060600020100804023E51494534
:1001A0003E00427F400072494949462141494D3352
:1001B0001814127F1027454545393C4A49493141B9
:1001C000211109073649494936464949291E000087
:1001D00014000000403400000008142241141414DC
:1001E0001414004122140802015909063E415D59C8
:1001F0004E7C1211127C7F494949363E41414122D1
:100200007F4141413E7F494949417F090909013EFA
:10021000414151737F0808087F00417F4100204021
:10022000413F017F081422417F404040407F021C33
:10023000027F7F0408107F3E4141413E7F0909094A
:10024000063E4151215E7F09192946264949493216
:1002500003017F01033F4040403F1F2040201F3FDC
:100260004038403F63140814630304780403615961
:10027000494D43007F4141410204081020004141A3
:10028000417F04020102044040404040000307084F
:100290000020545478407F2844443838444444284B
:1002A000384444287F385454541800087E090218F2
:1002B000A4A49C787F0804047800447D400020407A
:1002C000403D007F1028440000417F40007C0478BE
:1002D00004787C080404783844444438FC18242406
:1002E0001818242418FC7C08040408485454542486
:1002F00004043F44243C4040207C1C2040201C3C03
:100300004030403C44281028444C9090907C4464F9
:10031000544C44000836410000007700000041368C
:10032000080002010204023C2623263C1EA1A16112
:10033000123A4040207A3854545559215555794144
:100340002154547841215554784020545579400C1B
:100350001E527212395555555939545454593955FC
:100360005454580000457C410002457D420001453F
:100370007C40F0292429F0F0282528F07C545545AC
:10038000002054547C547C0A097F4932494949323F
:100390003248484832324A4848303A4141217A3A54
:1003A00042402078009DA0A07D39444444393D401E
:1003B00040403D3C24FF2424487E4943662B2FFCCB
:1003C0002F2BFF0929F620C0887E09032054547979
:1003D000410000447D413048484A32384040227A4A
:1003E000007A0A0A727D0D19317D2629292F2826C7
:1003F0002929292630484D402038080808080808CF
:100400000808382F10C8ACBA2F102834FA00007B27
:10041000000008142A142222142A1408950022002D
:1004200095AA005500AAAA55AA55AA000000FF00E7
:10043000101010FF00141414FF001010FF00FF1024
:1004400010F010F0141414FC001414F700FF000056
:10045000FF00FF1414F404FC141417101F10101FD5
:10046000101F1414141F00101010F0000000001FC3
:10047000101010101F10101010F010000000FF10CE
:100480001010101010101010FF10000000FF1400CA
:1004900000FF00FF00001F10170000FC04F41414FC
:1004A0001710171414F404F40000FF00F7141414C8
:1004B00014141414F700F7141414171410101F1048
:1004C0001F141414F4141010F010F000001F101F6B
:1004D0000000001F14000000FC140000F010F010D9
:1004E00010FF10FF141414FF141010101F00000050
:1004F00000F010FFFFFFFFFFF0F0F0F0F0FFFFFF54
:100500000000000000FFFF0F0F0F0F0F38444438AA
:10051000447C2A2A3E147E02020606027E027E02E5
:1005200063554941633844443C04407E201E200604
:10053000027E020299A5E7A5991C2A492A1C4C7241
:1005400001724C304A4D4D303048784830BC625AC8
:10055000463D3E494949007E0101017E2A2A2A2A58
:100560002A44445F444440514A444040444A514034
:100570000000FF0103E080FF000008086B6B0836F5
:1005800012362436060F090F060000181800000066
:100590001010003040FF0101001F01011E00191D55
:1005A0001712003C3C3C3C0000000000F0F89C8E20
:1005B0008783878E9CF8F00000FEFF03030303038C
:1005C000070EFCF80000FEFF0303030303070EFC05
:1005D000F80000FFFF00000000000000FFFF000027
:1005E000FEFF8383838383C7EE7C380000F8FC0E14
:1005F00007030303070EFCF800003F7FE0C0808084
:10060000C0E07F3FFFFF01010101010101FFFF0089
:1006100000FFFF0C0C0C0C1C3E77E3C100007FFFB9
:10062000C0C0C0C0C0E0703F1F00001F3F70E0C0EE
:10063000C0C0E0703F1F00007FFFC1C1C1C1C1E366
:10064000773E1C00001F3F70E0C0C0C0E0703F1F3D
:10065000000000000001FFFF01000000D5F08D1434
:10066000A1C881CFD9F1AF20000000000000FC86B6
:10067000B73706FC00000000000010985C5E203DCB
:100680002625253E58908000000098DAC060ECC412
:10069000E0F0B6F6E040042000000411030B2D0F3B
:1006A000064F1B0F073533000000408082F498A8E6
:1006B0008888A898F48280400000120A4A3F1F1DD3
:1006C0001A1A1D1F3F4A0A1200594F552057494E0A
:1006D000210047414D45204F564552004C3A002FCE
:1006E00000533A00000000E030105018185010304D
:1006F000E00000000000C0F9EABA3F2F2F3FBAEA3D
:10070000F9C00000000000788C84D4C7C7D4848C62
:10071000780000000000000E029EFFF7F7FF9E0227
:100720000E000000000000788C84D4C7C7D4848CED
:100730007800000000000C86C2FE3F17173FFEC283
:10074000860C0000594F552057494E210047414D16
:1007500045204F564552000C1E3E7C22120C000CC8
:1007600012224422120C000C1E3E7C3E1E0C002F56
:1007700032353500533A00007EFFC3C3FF7E0000D0
:100780000080FFFF860C08000000FFFF000000084B
:100790000C86FFFF8000004BB7032BD7030323D742
:1007A0000B0353AF0353AF020D000A050000080509
:1007B0000200040B00040BFFFFFFFFFFFFFFFF3EE3
:1007C000BEAAF6FAA6BE3E0F0F0F0F0F0F0F0F08AF
:1007D0000B000202020000090400000102020000F6
:1007E000052400100105240101010424020605244A
:1007F0000600010705810310004009040100020AF8
:1008000000000007050202400000070583024000C7
:10081000000403090412010002EF020140412336E3
:100820008000010102030141726475696E6F204C02
:100830004C430041726475696E6F204C656F6E6148
:1008400072646F00300E11241FBECFEFDAE0DEBFFE
:10085000CDBF11E0A0E0B1E0E8E8FFE202C0059002
:100860000D92A633B107D9F728E0A6E3B1E001C0A5
:100870001D92AE35B207E1F714E0C3E2D4E004C044
:100880002197FE010E94BC17C232D107C9F70E940E
:100890005B0E0C94C2170C9400002F923F924F9263
:1008A0005F926F927F928F929F92AF92BF92CF9200
:1008B000DF92EF92FF920F931F93CF93DF9330E07D
:1008C000F901E80FF91F1E161F060CF098C08038BA
:1008D00091050CF094C0FB01E00FF11D1E161F06E0
:1008E0000CF08DC0603471050CF089C0DB0177FF1E
:1008F00004C0AA27BB27A61BB70BA770BB27EB0119
:1009000077FD2796E3E0D595C795EA95E1F777FF60
:1009100007C0219768E070E0FB01EA1BFB0BDF01D9
:10092000069506950695602E712C7A01AE015695B6
:10093000542F442757954795480F591F4E5F5B4FDB
:10094000BE01E8E0F0E02F014A1A5B0A6F3FFFEFBB
:100950007F070CF444C06C0110E000E04A01F0E8AD
:100960008F0E911CD7FC2EC06F3F760709F45AC03A
:10097000F701E00FF11FE4915A01A00EB11EF0E063
:100980001F010A2E01C0220C0A94EAF7F5013080FB
:10099000232820821097B1F06730710599F0F70194
:1009A000E00FF11FE4915401A00EB11EF0E01F0111
:1009B000042C02C0359427940A94E2F7F5013080A4
:1009C000232820820F5F1F4FFFEFCF1ADF0A021785
:1009D00013072CF4E0E8CE16D10409F0C3CF6F5F03
:1009E0007F4FE20EF31E40585F4FFB01EC1BFD0BE7
:1009F000E615F70524F46830710509F0A7CFDF91FB
:100A0000CF911F910F91FF90EF90DF90CF90BF900B
:100A1000AF909F908F907F906F905F904F903F909E
:100A20002F900895109709F0BACFCCCF8CE890E0C2
:100A300090930104809300041092FF031092FE0330
:100A40001092FD031092FC031092FB031092FA0324
:100A50001092F9031092F8031092F7031092F60324
:100A60001092F5031092F403E2E5F8E084E180834C
:100A700088E290E092838183138214821682178227
:100A800086E085830895E2E0F4E0A0E0B8E000802D
:100A90000EBC8111012C1197A0FDFDCF0192B9F779
:100AA0000DB40895FC018091DD03882311F13FB757
:100AB000F89482E08093E9002091F200822F90E088
:100AC0001816190614F481E090E0882339F028986C
:100AD00044E64093DC034091F1004083222339F047
:100AE0002091F200211103C02BE62093E8003FBFC4
:100AF00008958FEF9FEF08952FB7F89483E08093C8
:100B0000E9009091E800892F807295FF04C09091D0
:100B1000F20080E4891B2FBF08958091D4038111D6
:100B20000DC082E08093D00384E08093D1031092C3
:100B3000D3031092D20381E08093D40380ED93E03D
:100B40000895CF93DF931F92CDB7DEB76983DC01A1
:100B5000ED91FC910280F381E02D41E050E0BE0177
:100B60006F5F7F4F09950F90DF91CF91089583E0DC
:100B70008093E9008091F200882319F08AE3809342
:100B8000E80008950E947C0590E00895CF93DF93DC
:100B90001F92CDB7DEB7FC018485958597FD08C00F
:100BA0002FEF3FEF358724870F90DF91CF91089586
:100BB000CE0101960E945205019719F4898190E0B7
:100BC000F3CF8FEF9FEFF0CF0F931F93CF93DF9370
:100BD0001F92CDB7DEB78C01FC018485958597FF08
:100BE0000BC0CE0101960E945205019771F48981D4
:100BF00090E0F80195878487F801848595850F90AA
:100C0000DF91CF911F910F9108958FEF9FEFF1CF5B
:100C1000FC018485958597FD0BC09FB7F89482E011
:100C20008093E9008091F2009FBF90E001960895C3
:100C30009FB7F89482E08093E9008091F2009FBF13
:100C400090E008954091CA035091CB032091C803CE
:100C50003091C90342175307B4F49091E80095709E
:100C6000E1F39091E80092FD19C08093F10080912A
:100C7000CA039091CB0301968F739927892B19F49E
:100C80008EEF8093E8008091CA039091CB03019688
:100C90009093CB038093CA0381E0089580E0089588
:100CA000DF92EF92FF920F931F93CF93DF93D82E93
:100CB0008A01EB017B01E40EF51ECE15DF0559F02C
:100CC000D7FE12C0FE0184910E9422062196811156
:100CD000F4CF0FEF1FEFC801DF91CF911F910F915C
:100CE000FF90EF90DF9008958881EECF0F931F93D0
:100CF000CF93DF931F92CDB7DEB782E0898342E4C2
:100D000050E06FEC77E080E80E9450060E948D056D
:100D1000DC0112960D911C910115110589F0D80185
:100D2000ED91FC910280F381E02DBE016F5F7F4F5A
:100D3000C801099597FD04C0F80100851185ECCF25
:100D400089810F90DF91CF911F910F91089561508C
:100D500030F02091F100FC0120830196F8CF289813
:100D600084E68093DC030895AF92BF92CF92DF9226
:100D7000EF92FF920F931F93CF93DF936C017B0150
:100D80008B01040F151FEB015E01AE18BF08C017E1
:100D9000D10759F06991D601ED91FC910190F08154
:100DA000E02DC6010995892B79F7C501DF91CF9117
:100DB0001F910F91FF90EF90DF90CF90BF90AF9079
:100DC00008953FB7F8948091370190913801A09130
:100DD0003901B0913A0126B5A89B05C02F3F19F003
:100DE0000196A11DB11D3FBFBA2FA92F982F8827AB
:100DF000BC01CD01620F711D811D911D42E0660F86
:100E0000771F881F991F4A95D1F708958F929F9257
:100E1000AF92BF92CF92DF92EF92FF926B017C0173
:100E20000E94E1064B015C01C114D104E104F1040C
:100E3000B9F00E94E106681979098A099B09683EA0
:100E400073408105910580F321E0C21AD108E108C1
:100E5000F10888EE880E83E0981EA11CB11CE4CF37
:100E6000FF90EF90DF90CF90BF90AF909F908F90CA
:100E700008958F929F92AF92BF92CF92DF92EF929E
:100E8000FF920F931F93CF93DF936C017B018A0135
:100E900080910C01882309F45CC08091DD038823D4
:100EA00009F457C08091CF0380FF05C08091E00016
:100EB00082608093E000E801B12C8AEFA82E93E0D5
:100EC000892E2AE3922E209711F4BB20D9F10E949B
:100ED0007C0581110AC0AA94AA20D9F161E070E0D2
:100EE00080E090E00E940607EECF8C171D0611F0FF
:100EF0000CF08C2F9FB7F8948092E9002091E800C5
:100F000025FD02C09FBFDFCF282F30E0C21BD30BCF
:100F1000F701815020F041914093F100FACFE20EA9
:100F2000F31EBB2021F09092E800B12CEBCF809112
:100F3000E80085FDE7CF9092E800BB24B3942097AA
:100F400009F3F3CF5D9884E68093CE031016110663
:100F50003CF081E090E0F6019383828310E000E0B2
:100F6000C801DF91CF911F910F91FF90EF90DF901B
:100F7000CF90BF90AF909F908F9008952D9A089535
:100F8000BC0190E080E00C9406078FB18095807FD3
:100F9000669B88601C9B846008955C988EBD0000F1
:100FA0000DB407FEFDCF5C9A08959091C30398237A
:100FB00029F49091C403982381E009F480E0089516
:100FC000CF93C82F0E94C507982F9C2381E09C13C4
:100FD00080E0CF91089580E00C944305803891051E
:100FE000B8F460347105A0F420E191E061FD94E073
:100FF00060FD990F62FD9295687F269FD0011124B4
:10100000A80FAE5FBB4F8C9140FF03C0892B8C9320
:10101000089590958923FBCFCF93DF93E6E9F5E020
:1010200099E5915059F4E6E1F6E099E5915061F0C7
:101030008191DF01119780628C93F8CF8191DF015C
:10104000119781608C93EDCFC8E1D0E041E0BE0103
:1010500084E190E00E94EE072196C632D105B1F7F7
:10106000C8E1D0E041E0BE018BE690E00E94EE07CF
:101070002196C632D105B1F7DF91CF9108950F9334
:101080001F93CF93DF93C4E1D0E008E110E040E08C
:10109000B801CE010E94EE070F5F1F4F0632110507
:1010A000B1F72196CC36D10581F7DF91CF911F9111
:1010B0000F9108958F929F92AF92BF92CF92DF923D
:1010C000EF92FF920F931F93CF93DF936D3089F0D0
:1010D000C090C103D090C2036A30D1F41092C00313
:1010E0001092BF0388E0C80ED11CD092C203C092F8
:1010F000C10381E090E0DF91CF911F910F91FF90AC
:10110000EF90DF90CF90BF90AF909F908F90089519
:101110000091BF031091C003E5E06E9FE001112430
:10112000C455DF4F4801F12CF5E0E12CFF1629F002
:10113000CE010196FE01E490EC01B12CA12C4E2DC4
:101140004170B6016A0D7B1DC4010E94EE07E69452
:10115000FFEFAF1ABF0A88E0A816B10481F7F39435
:10116000EFEF8E1A9E0AF6E0FF12DECF0A5F1F4FE6
:101170001093C0030093BF03BCCF0F931F93CF9373
:10118000DF938C01D0E0C0E0F801EC0FFD1F64910B
:10119000662341F08AE598E00E945A08892B11F0F5
:1011A0002196F2CFCE01DF91CF911F910F9108953B
:1011B000089590E080E008958F929F92AF92BF9241
:1011C0000F931F93CF93DF93CDB7DEB7A1970FB6E1
:1011D000F894DEBF0FBECDBF19A2423008F44AE03A
:1011E0008E010F5D1F4F842E912CB12CA12CA501D7
:1011F00094010E945717E62FB901CA01EA3044F55D
:10120000E05DD801EE938D01232B242B252B79F75C
:1012100090E080E0109769F0FD0101900020E9F76F
:101220003197AF014A1B5B0BBD018AE598E00E9434
:10123000B406A1960FB6F894DEBF0FBECDBFDF9106
:10124000CF911F910F91BF90AF909F908F90089575
:10125000E95CD7CF9F92AF92BF92CF92DF92EF928D
:10126000FF920F931F93CF93DF932091F20330915E
:10127000F3034091EB03C90160E870E00E94A817F6
:10128000EC01DD27CE01815C9C4F5C01FE01E15C3D
:10129000FD4F6F01CE0181549E4F7C018E010154A0
:1012A0001D4FC15CDE4F442331F18FEFF501808388
:1012B000F6011082F7011082F80110821882415065
:1012C0004093EB038091EA03882319F081508093C7
:1012D000EA032F5F3F4F3093F3032093F203DF9134
:1012E000CF911F910F91FF90EF90DF90CF90BF9023
:1012F000AF909F9008958091F00381113EC00E94AD
:10130000B7162091F2033091F3032A3031050CF027
:10131000DBC080E38093F1039EE0992E9092EF036F
:101320009092F0031092EE038FEF8093ED03809381
:10133000EC038091F2039091F3030A97F4F026E016
:101340002915D8F40E94B71624E630E040E050E0BA
:101350000E942517673071050CF0DEC00E94B71699
:10136000492D4450550B9A01032E000C440B550B8C
:101370000E9425176E5F6093ED038091F103F501E4
:1013800080838091EE033091ED038313D9C091E007
:10139000F60190832091EC038213D5C091E0F70110
:1013A00090838F3F09F4DBC091E0F80190831882AD
:1013B000F601908191114FC0F701908191114BC0BE
:1013C000F8019081911147C09091EA039111CCC02E
:1013D0003F3F49F0831708F4C5C0F82FF31B3F2F98
:1013E00041E0333008F040E02F3F71F0682F70E0AB
:1013F00030E0FB013196E217F30734F02E5F3F4FE8
:1014000091E0261737070CF490E021E0823048F095
:101410006091EF036150770B21E0861717060CF4FB
:1014200020E041111FC091111DC021111BC00E945D
:10143000B71624E630E040E050E00E94251781E036
:101440006D32710524F0623371052CF482E08883DB
:1014500083E08093EA038091EA03882319F08150A6
:101460008093EA038091EE038F5F8093EE032091D7
:10147000F00321502093F0038091F2039091F30345
:1014800001969093F3038093F203211128CF4197A3
:101490000CF425CF0E94B71624E630E040E050E07F
:1014A0000E9425176F307105810591050CF017CF4B
:1014B0000E94B71622E030E040E050E00E9425177D
:1014C0006E5F6093EB030BCF25E030E040E050E02F
:1014D0000E94251788E0982E960E0E94B71623E0EA
:1014E00030E040E050E00E9425176150F8E06F02C4
:1014F000C00111246091F103680F792F711D6933C8
:10150000710514F068E370E06832710514F468E264
:1015100070E06093F10302CF6F3071050CF02DCFB6
:101520000E94B716E92DE550FF0B9F01032E000C1A
:10153000440B550B0E9425176E5F6093EC031DCF83
:10154000F601108227CFF70110822F3F41F0422F82
:1015500050E04F5F5F4F8417150609F425CFF8015F
:10156000108225CF381B3CCF892F79CF2FB7F89425
:101570006091DE037091DF038091E0039091E103BD
:101580002FBF611571058105910511F00E940617A5
:101590001092F3031092F20380E38093F103109210
:1015A000F0031092EF031092EE038FEF8093ED03A0
:1015B0008093EC031092EB031092EA038091F20304
:1015C0009091F303803891051CF40E942A09F6CF0C
:1015D00080E190E09093E9038093E8031092E703A1
:1015E0001092E6031092E50382E08093E4031092E8
:1015F000E3031092E2038EE18093520880E290E0D0
:1016000090935408809353081092550810925608EE
:10161000109259081092580886E080935708089550
:101620000C940F171F920F920FB60F9211248F93E5
:101630009F938091E1009091E100937F9093E1006E
:1016400083FF0FC01092E90091E09093EB0010929D
:10165000EC0092E39093ED001092DD0398E09093FC
:10166000F00082FF22C093E09093E9009091F20095
:10167000992319F09AE39093E8009091CE0399236F
:1016800041F09091CE0391509093CE03911101C0FF
:101690005D9A9091DC03992341F09091DC03915085
:1016A0009093DC03911101C0289A84FF18C08091A7
:1016B000E2008E7E81608093E2008091E1008F7E67
:1016C0008093E1008091CF038E7E80618093CF0371
:1016D0009F918F910F900FBE0F901F90189580FFD4
:1016E000F7CF8091E2008E7E80618093E20080914E
:1016F000E1008E7E8093E1008091CF038E7E816039
:10170000E5CF1F920F920FB60F921124CF92DF9266
:10171000EF92FF920F931F932F933F934F935F93FB
:101720006F937F938F939F93AF93BF93EF93FF93A9
:10173000CF93DF93CDB7DEB76C97DEBFCDBF1092EE
:10174000E9008091E80083FF25C068E0CE0145965E
:101750000E94A70682EF8093E8008D8987FF39C039
:101760009091E80090FFFCCF982F907609F034C15B
:101770009E894F89588D2F89F88C911131C08038FE
:1017800061F58091CD038093F1001092F1008EEF0E
:101790008093E8006C960FB6F894DEBF0FBECDBF05
:1017A000DF91CF91FF91EF91BF91AF919F918F9179
:1017B0007F916F915F914F913F912F911F910F9169
:1017C000FF90EF90DF90CF900F900FBE0F901F9083
:1017D00018959EEF9093E800C7CF1092F100D5CFF7
:1017E000913059F48111D3CF4130510581F6809168
:1017F000CD038D7F8093CD03CACF933049F48111FF
:10180000C6CF4130510519F68091CD038260F2CFE9
:10181000953041F48091E80080FFFCCF2068209350
:10182000E300B5CF963009F0A9C00B8D1C8D22E0E6
:101830001092E9001092CB031092CA03F2122EC04C
:101840001092C9031092C8030E9476061F8299E085
:101850009983FA8291E09E8390EA98879AEF99871C
:101860002091CA033091CB03275F3F4F3C832B83EA
:101870008D831092E9001092CB031092CA0310934B
:10188000C9030093C80349E050E0BE016F5F7F4F7A
:1018900080E00E9450060E94760679CF1093C9031B
:1018A0000093C8030E948D05DC0112960D911C91D6
:1018B0000115110509F451C1D801ED91FC91048085
:1018C000F581E02DBE016B5E7F4FC8010995009741
:1018D00009F03EC1F80100851185EACFF3E0FF125F
:1018E0000EC08F89882309F440C0823061F440E83B
:1018F00060E183E398E00E94FD0D811148CF81E211
:101900008093EB0047CF813029F440E86BE087E219
:1019100098E0F1CF833099F70E948D05DC01129693
:10192000ED90FC908E010F5F1F4F6801E114F104F0
:1019300079F0D701ED91FC910680F781E02DB80197
:10194000C7010995080F111DF701E084F184EECF5E
:10195000D8011C92F60101900020E9F73197BF01F0
:101960006C197D0940E0C601C6CF61E178E0FB015A
:10197000449150E080E80E94500609CF973009F466
:10198000BECF983021F481E08093F10000CF9930F0
:1019900009F0FDCE837009F0B2CFE2E1F1E081E021
:1019A00031E096E32191222371F08093E900309396
:1019B000EB00DF0111972C912093EC009093ED0048
:1019C0008F5F873079F78EE78093EA001092EA0004
:1019D0008F898093DD03DBCE8B8D9C8D1092E90087
:1019E0001092CB031092CA039093C9038093C8034B
:1019F000898D811192C08E899D89913A49F48132F5
:101A000009F07DCF47E050E065E071E080E0B3CFC2
:101A1000913209F074CF833269F48F89988DB0E0E8
:101A2000A0E08093010190930201A0930301B09381
:101A30000401ADCE803269F48091E80082FFFCCFD2
:101A400067E085E091E00E94A7068BEF8093E800B5
:101A50009ECE823209F09BCE8F8980930C01EEEFEF
:101A6000FFE7859194918B3F9C4D51F1E0E0F8E0C8
:101A70008091050190910601A0910701B0910801A4
:101A8000803B9440A105B105F1F480910C0180FDEB
:101A90001AC0EE3F8AE0F80789F587E797E7918358
:101AA0008083809160008093CC0388E19BE00FB637
:101AB000F894A895809360000FBE9093600067CE65
:101AC000EEEFFAE0D5CF808191818737974709F013
:101AD0005ECEA895809160008861809360008091BF
:101AE000CC0380936000EE3F2AE0F20789F08091FA
:101AF000FE0A9091FF0A9183808349CE8081918173
:101B00008737980751F29093FF0A8093FE0AC5CF5A
:101B10001092FF0A1092FE0A3ACE0E948D05DC0157
:101B200012960D911C910115110509F4E8CED8010A
:101B3000ED91FC910190F081E02DBE016B5E7F4F35
:101B4000C8010995811123CEF80100851185EBCFDD
:101B5000181619060CF41BCED2CEF1E0FF12BECE41
:101B600065E178E004CF1F920F920FB60F92112417
:101B70002F933F938F939F93AF93BF938091DE03F7
:101B80009091DF03A091E003B091E1033091360121
:101B900023E0230F2D3758F50196A11DB11D209389
:101BA00036018093DE039093DF03A093E003B093AC
:101BB000E1038091370190913801A0913901B091F2
:101BC0003A010196A11DB11D809337019093380110
:101BD000A0933901B0933A01BF91AF919F918F913A
:101BE0003F912F910F900FBE0F901F90189526E8F0
:101BF000230F0296A11DB11DD2CFEF92FF920F933A
:101C00001F93CF93DF93F82E192FE62E042F81E038
:101C1000860F880F0E94220683E00E942206CF2DA5
:101C2000D12FEC0EFD2EF11CCE15DF05B9F007FF0C
:101C300013C0FE0184910E942206182F80E00E94AA
:101C40002206812321968111EFCFDF91CF911F9141
:101C50000F91FF90EF9008958881EDCF81E0F5CF4F
:101C6000E2E0F8E01382128288EE93E0A0E0B0E0B8
:101C700084839583A683B7838CE191E091838083ED
:101C80008FEF9FEF95878487EAE5F8E01382128251
:101C90008EE291E091838083E2E5F8E01382148282
:101CA00086E085831682178280E1808380E290E05F
:101CB000928381830895CF93DF93CDB7DEB72D97BD
:101CC0000FB6F894DEBF0FBECDBF789484B58260A6
:101CD00084BD84B5816084BD85B5826085BD85B5D0
:101CE000816085BD80916E00816080936E0010924E
:101CF00081008091810082608093810080918100C9
:101D00008160809381008091800081608093800059
:101D10008091910082608093910080919100816018
:101D200080939100809190008160809390008091D9
:101D3000C10084608093C1008091C1008260809363
:101D4000C1008091C10081608093C1008091C30077
:101D500081608093C3008091C00082608093C00046
:101D60008091C20081608093C20080917A0084607B
:101D700080937A0080917A00826080937A008091CB
:101D80007A00816080937A0080917A0080688093E5
:101D90007A001092DD031092CD031092CF03809150
:101DA000D70081608093D70080EA8093D80089B5FE
:101DB000806189BD89B5826089BD09B400FEFDCF0F
:101DC00061E070E080E090E00E9406078091D8001A
:101DD0008F7C80618093D8008091E000807F809329
:101DE000E0008091E1008E7E8093E1008DE08093A1
:101DF000E200559A209A81EC80937C0085B1806F37
:101E000085B984B1877E84B984B1876E84B95E9ABE
:101E10005F988AB1806D8AB9769A6E9881B3806F27
:101E200081BB899880B38D7080BB80E58CBD81E0DB
:101E30008DBD85E090E00E94C0075F9A85E090E04C
:101E40000E94C0075E985C98ECE5F6E089E696E0B3
:101E500024912EBD00000DB407FEFDCF31968E17E4
:101E60009F07B1F75C9A81E88093640080916500D8
:101E70008160809365000E94EB0780E80E94E00784
:101E8000882381F085EA0E94CD072E982F982D98FF
:101E90008091640080628093640081E083BF8895B4
:101EA00013BEFCCF84E00E94E007882309F448C0F9
:101EB0002D9884E80E94E0078823E1F00E94BE0785
:101EC00088EC90E00E94C0072F9882E090E00E948A
:101ED0000F178F3F29F06FEF82E090E00E941717F5
:101EE00084EF91E00E94C0072F9A84E80E94E007E7
:101EF0008111FBCF84E10E94E0078823E1F00E947A
:101F0000BE0788EC90E00E94C0072E9882E090E027
:101F10000E940F17882329F060E082E090E00E9481
:101F2000171784EF91E00E94C0072E9A84E10E9467
:101F3000E0078111FBCF88EC90E00E94C007B2CF90
:101F40000E94BE0782E090E00E94100B882309F4F3
:101F500042C03E9A3F9A81E090E00E94100B182FF9
:101F6000147081FF0FC011112E9821EF3FEF3B83BA
:101F70002A8380E40E94E007882381F12E9A2F9A19
:101F80000E94BE0782E390E00E94C0070E94C5073E
:101F90008111F8CF87EA0E94CD070E94B60AFCE1C2
:101FA0006F2E712C2FB7F8948091DE039091DF0390
:101FB000A091E003B091E1032FBF10913D011123E7
:101FC00009F474C010923D0180E090E0892B51F338
:101FD0000E940000E4CF3E983F98BDCF112339F016
:101FE0004A815B814430510511F42E9A2F9881E08B
:101FF0000E94430500E128E54CEA55E06A817B81B7
:1020000084E190E00E944D040E94EB078FE090E095
:102010000E94C0076A817B816F5F7F4F7B836A83E9
:102020006931710509F0A5CF112311F02F9A2D9870
:1020300080E991E00E94C0070E94BE0781E090E025
:102040000E94100B80FF9ECF8AE090E00E94100B50
:102050009FEF980F9E3F08F095CF22E330E030933A
:10206000C0032093BF0328E330E03093C2032093E2
:10207000C103EBE0F0E0FB83EA83682F8AE598E098
:102080000E945A088A819B810E94100B2A813B8101
:102090002F5F3F4F3B832A832131310571F70E9427
:1020A000EB0788EE93E00E94C0076CCF20913E01C1
:1020B000382F321B303140F43F3009F485CF81E0B6
:1020C00083BF889513BE80CF41E040933D0180934C
:1020D0003E0180913B0190913C01019690933C011F
:1020E00080933B018091C4038093C3030E94C50782
:1020F0008093C403812FE2E0F4E081118FEF00248C
:1021000081938193819381930394D1F71092C203B9
:102110001092C1031092C0031092BF038091C703B5
:102120008F5F8093C7036CE30E9488179093C60368
:102130001092C50380E10E94E007882319F051E066
:102140005093C50380E80E94D507882329F0809129
:10215000C50382608093C50380E40E94E007882362
:1021600029F08091C50384608093C50380E20E94BA
:10217000E007882329F08091C50388608093C50318
:102180008091C5038093580880910001813009F047
:1021900082C38091E5038150823008F4EFC06091E2
:1021A000E8037091E9037B836A8377FF04C0695F6A
:1021B0007F4F7B836A838A819B81E3E09595879536
:1021C000EA95E1F784589F4F9B838A838091F203BD
:1021D0009091F303EA80FB808E159F051CF40E940A
:1021E0002A09F4CF8091E303882319F0815080936A
:1021F000E303F090580880915508F2FE67C18F5FA5
:1022000084300CF061C1809355088091E4032091E3
:102210005508022E000C330B280F311D37FF02C06A
:1022200030E020E08091E8039091E903280F391F06
:102230003093E9032093E803C9014E9797FD57C1F6
:102240009093E7038093E6038091E603422F481BB7
:1022500040935208C901089697FD079673E095953B
:1022600087957A95E1F760E870E00E94A81797FFDC
:1022700002C080589F4FFC01E15CFC4F10818154EB
:102280009D4FFC01F081FA83812F90E0DC01909753
:1022900040915308509154081F3FB9F0BA01605F54
:1022A0007F4FFF2349F06A177B0734F0FC017F97CB
:1022B00001E0E617F70754F46817790734F001E0F6
:1022C000FC013196E617F7070CF400E06091C503B6
:1022D00061FF03C068E06093E2036091E20366235C
:1022E00039F0002329F06BEF609356081092E20357
:1022F0006091E203662319F061506093E2036091FC
:102300005608460F511D67FD5A9550935408409347
:1023100053081F3FD1F0405F5F4FEA80EE2009F481
:10232000EBC0161694F4A417B5070CF0E8C0BC0176
:1023300068517109641775070CF4E1C0C097909358
:10234000540880935308109256088091C70380FD6B
:1023500008C0809156088F5F86300CF0DDC08093F6
:10236000560840915308509154085D874C87493472
:1023700051050CF4D3C082E08093E5038090E6031E
:102380009090E703740197FE03C027E0E20EF11C72
:10239000A3E0F594E794AA95E1F732E0E31AF10897
:1023A000F7FE02C0F12CE12C540140E8A40EB11C50
:1023B000B7FE03C057E0A50EB11CF3E0B594A79497
:1023C000FA95E1F7AE14BF040CF4B8C1B7016F770A
:1023D00077277B836A836701E3E0CC0CDD1CEA95F9
:1023E000E1F7C818D908FB01E15CFC4F10811F3FE1
:1023F00049F0612F70E008E028E047EC57E0C601A3
:102400000E944D04EA81FB81E15CFD4F80818823BD
:1024100069F01F3F59F008E028E04FEB57E0812FAB
:102420008850990BBC01C6010E944D04EA81FB81D2
:10243000E154FD4F8081882369F01F3F59F008E087
:1024400028E047EB57E0E12FE052FF0BBF01C60148
:102450000E944D04EA81FB81E154FE4F8081882374
:1024600069F01F3F59F000E120E147E957E0812F73
:102470008851990BBC01C6010E944D04EA81FB8181
:10248000E15CFE4F8081882309F454C11F3F09F4A9
:1024900051C1813009F03DC18091C603212F2850E0
:1024A000330BB90108E028E04FE857E08F3008F41B
:1024B0003EC18E5108E028E04FE757E0803108F434
:1024C00036C147E857E033C183E09DCEF3FE06C036
:1024D00081508D3F0CF097CE8DEF95CE181614F4E9
:1024E000815091CE882309F490CE8F5F8CCE1092CC
:1024F000E7031092E603A8CE16160CF026CF841739
:1025000095070CF022CFBC01685F7F4F64177507F9
:102510000CF41BCF409713CF85E021CF4C845D8412
:10252000F0FE03C053E0450E511C89010D5F1F4FA3
:10253000D9011D968C849D846DE0860E911CA801A6
:1025400017FF02C0495F5F4F63E0559547956A9555
:10255000E1F75A0171E0A71AB108CD01B7FD07965E
:1025600023E0959587952A95E1F7FC013196FD8347
:10257000EC8390915708F091E303FA878091590812
:1025800033E0440F551F3A95E1F730E020E0BA01FF
:10259000685071097B836A831A0171E0271A310838
:1025A000FA013896FF83EE83BA0167507109798783
:1025B0006887EC81FD81EA15FB050CF49EC0B7FC31
:1025C00089C0A5014F775527BA01615C7D4FFB019A
:1025D0006081662329F1FA85F11122C0BA01615C9C
:1025E0007C4FFB0160816F3FD9F070E0E884F98493
:1025F000E20EF31EEA16FB063CF4F1E07101E20E76
:10260000F31E0E151F050CF0F0E0EC84FD84E616B9
:10261000F70634F466507109681579050CF4F3C2B5
:10262000BA0161547E4FFB016081662341F1FA8556
:10263000F11125C0BA01615C7C4FFB0160816F3FE5
:10264000F1F070E06B01F8E1CF1AD108EA80FB806D
:10265000E20EF31EEA16FB0644F4F1E0EE80FF8082
:10266000E20EF31E0E151F050CF0F0E0C814D9049D
:1026700034F46D507109461657060CF4D1C2FA01B4
:10268000E15CFE4F7F01F081FB87FF2319F1415C84
:102690005C4FFA0140814F3FE9F050E06A01F8E0F9
:1026A000CF1AD1086A817B81620F731F6A177B077B
:1026B0003CF4E1E0B101620F731F601771070CF485
:1026C000E0E0C814D90434F46C857D85641775077F
:1026D0000CF4AFC2FFEFAF1ABF0A285F3F4F69CFBC
:1026E00092506CE36A879CCFEB85E23009F0A9C277
:1026F000882309F4A6C28150A4C290935708EA84A3
:10270000E092E303809359088E3108F437CE81E0DC
:1027100033CE823079F4412F4850550BBA01809165
:10272000C60308E028E047E757E081FDCACEC601AE
:102730000E944D045FEFE51AF50A44CE8091E30351
:10274000882329F08091C6038770843088F46091D3
:102750005308709154088091520890E020915808D5
:1027600020FF6BC000E120E144EE56E00E944D04E2
:102770001092C0031092BF031092C2031092C103C3
:1027800084E797E00E94BD086091590870E090E0EE
:1027900080E04AE00E94DC088FE697E00E94BD08D6
:1027A00068E6E62EF12C61E070E07B836A839A8113
:1027B000915080915708EA81FB8147E657E08E17D8
:1027C0001F0609F034F44FE557E0981710F447E579
:1027D00057E008E028E070E060E0C7010E944D0487
:1027E0002A813B812E5F3F4F3B832A8338E0E30EF3
:1027F000F11C4A815B8147305105C9F68091E503A0
:10280000823041F50E943F080E940C0884E290E06B
:102810009093C0038093BF037092C2036092C10380
:102820008DE497E00E94BD0888E00E94D5078823C8
:1028300009F4C8C10E94B60AC5C12091C60300E1CF
:10284000223320F420E144E257E090CF20E144E03D
:1028500057E08CCF813009F0B5C10E943F080E943B
:102860000C086EE170E07093C0036093BF03709238
:10287000C2036092C10384E497E00E94BD0888E02F
:102880000E94D507882309F49DC182E0809300014E
:102890000E94160597C18091F8038150823008F498
:1028A000E6C12091F6038091F9039091FA03019615
:1028B0009093FA038093F903222319F02150209377
:1028C000F603E090FD03F090FE03FB82EA82EF281E
:1028D000C1F000915808802F8E7F80935808EA80BD
:1028E000FB80EF28D9F484E00E94D507811102C053
:1028F00001FF90C081E190E09093FC038093FB0383
:102900000DC088E00E94E00790915808811102C034
:1029100090FFDFCF91609093580811E08091FB0306
:102920009091FC03009729F4EA80FB801E141F0499
:10293000C4F4EA80FB80E80EF91EF092FE03E092F8
:10294000FD0301979093FC038093FB031E141F0467
:1029500044F01092FE031092FD031092FC031092BB
:10296000FB038091F4039091F5039E5F492F552757
:102970002091000430910104241B350B3093010495
:102980002093000499279093F5038093F40380919A
:10299000FD039091FE0397FD039695958795959578
:1029A0008795919581959109FC01B89644E14093F2
:1029B0005208F0935408E093530863E070E011115B
:1029C00002C061E070E04091FF03413029F54CE125
:1029D00050E0C7964817590744F46E0F7F1F425FB7
:1029E0005F4F461757070CF02FC18091F7038111F5
:1029F0001DC0243031050CF03AC191E09093F703EB
:102A0000809159088F5F80935908893178F09093AD
:102A1000F8032DC110E082CF48E250E0DACF8150B8
:102A2000809357088CE38093F603DFCF203F3F4F1E
:102A30000CF01DC10E94B71629E130E040E050E0E3
:102A40000E94251764577F4F709301046093000420
:102A50000E94B71623E030E040E050E00E942517C6
:102A60006093FF031092F70302C1E12EE194E98223
:102A700088E9E82EE11AEA8289818F7741E06CE3E8
:102A800070E090E00E94EE0729812D5E2983EA80A4
:102A9000E212F2CF8091FF03882349F049E656E025
:102AA000813039F449E856E06CE170E004C049EA4D
:102AB00056E068E270E000E120E18091000490912E
:102AC00001040E944D048091F603882329F080912F
:102AD000C6038770843020F58091580844EE56E094
:102AE00080FD13C08091FD039091FE031816190616
:102AF00054F0812F9F2D66E070E00E94941744E00F
:102B000057E060FD02C044E257E0609153087091C5
:102B100054088091520800E120E190E00E944D04A9
:102B20001092C0031092BF031092C2031092C1030F
:102B300081EE96E00E94BD086091590870E090E037
:102B400080E04AE00E94DC088FED96E00E94BD081C
:102B50004AE069E170E080E090E00E94DC0820E655
:102B600030E03093C0032093BF031092C203109251
:102B7000C1038CED96E00E94BD086091570870E09B
:102B800090E080E04AE00E94DC08E090F803E982EF
:102B90002E2D2230D1F40E943F080E940C0884E2BE
:102BA00090E09093C0038093BF037092C203609241
:102BB000C10382ED96E00E94BD0888E00E94D5071F
:102BC000811166CE0E94EB07FFC939813130D1F700
:102BD0000E943F080E940C084EE150E05093C00351
:102BE0004093BF037092C2036092C10389EC96E0E8
:102BF0000E94BD0888E00E94D507882319F3E98068
:102C0000E092000117CEFF2309F40ACD933008F0BB
:102C100067CD1092E3038093590810925708ABCB0D
:102C2000FF2309F42CCD9230A0F391506CE36A8716
:102C300026CDEE2309F44ECD7B85713009F054CDBD
:102C40008F5FF701108246CDC9010A97459708F0BA
:102C5000CCCE8091F6038111C8CE80915708823086
:102C600008F0DDCE1092570882E08093F8031B82B3
:102C70001A8200E01091F903F090FA038A819B8197
:102C800065E170E00E94A8179C01245F3F4F812FEF
:102C90009F2D63E070E00E949417802F861B8F7732
:102CA00041E0B90190E00E94EE07035E6A817B81FA
:102CB000695F7F4F7B836A836F337105D9F6E2E8E2
:102CC000F7E091E8915009F4D0CE8191DF0111979E
:102CD00081608C93F7CF8F929F92AF92BF92CF92E9
:102CE000DF92EF92FF92CF93DF93EC0168817981BD
:102CF0008A819B81611571058105910521F464E24A
:102D000079ED8BE597E02DE133EF41E050E00E9453
:102D1000251749015A019B01AC01A7EAB1E40E94C1
:102D200044176B017C01ACEEB4EFA50194010E9445
:102D30005217C60ED71EE81EF91EF7FE06C081E028
:102D4000C81AD108E10880E8F80AC882D982EA8264
:102D5000FB82C701B6019F77DF91CF91FF90EF9083
:102D6000DF90CF90BF90AF909F908F9008958F92FB
:102D70009F92AF92BF92CF92DF92EF92FF926091BB
:102D80000D0170910E0180910F019091100161155C
:102D900071058105910521F464E279ED8BE597E0F9
:102DA0002DE133EF41E050E00E94251749015A011F
:102DB0009B01AC01A7EAB1E40E9444176B017C01BE
:102DC000ACEEB4EFA50194010E945217C60ED71EB7
:102DD000E81EF91EF7FE06C081E0C81AD108E10816
:102DE00080E8F80AC0920D01D0920E01E0920F0126
:102DF000F0921001C701B6019F77FF90EF90DF902E
:102E0000CF90BF90AF909F908F90089560930D01E9
:102E100070930E0180930F01909310010895F9991A
:102E2000FECF92BD81BDF89A992780B50895262FCF
:102E3000F999FECF1FBA92BD81BD20BD0FB6F8949F
:102E4000FA9AF99A0FBE01960895052E97FB1EF483
:102E500000940E943C1757FD07D00E94571707FCAB
:102E600003D04EF40C943C17509540953095219525
:102E70003F4F4F4F5F4F08959095809570956195A6
:102E80007F4F8F4F9F4F08950E947917A59F900DF8
:102E9000B49F900DA49F800D911D11240895B7FF3C
:102EA0000C9444170E944417821B930B0895A1E2CF
:102EB0001A2EAA1BBB1BFD010DC0AA1FBB1FEE1FB4
:102EC000FF1FA217B307E407F50720F0A21BB30BFF
:102ED000E40BF50B661F771F881F991F1A9469F77B
:102EE00060957095809590959B01AC01BD01CF01D7
:102EF0000895A29FB001B39FC001A39F700D811DD3
:102F00001124911DB29F700D811D1124911D0895F2
:102F1000991B79E004C0991F961708F0961B881F2B
:102F20007A95C9F780950895AA1BBB1B51E107C08C
:102F3000AA1FBB1FA617B70710F0A61BB70B881F49
:102F4000991F5A95A9F780959095BC01CD010895D8
:102F500097FB072E16F4009407D077FD09D00E9446
:102F6000941707FC05D03EF4909581959F4F0895E6
:102F7000709561957F4F0895EE0FFF1F0590F491B6
:082F8000E02D0994F894FFCF45
:102F880001FFFFFFFF00E10000000000000100005A
:102F98000000C1808100000000000000A105390781
:102FA800C205B7050806C605E405000000005A0872
:062FB800B406D908D80898
:00000001FF
