:100000000C94880A0C94B00A0C94B00A0C94B00AB0
:100010000C94B00A0C94B00A0C94B00A0C94B00A78
:100020000C94B00A0C94B00A0C94BA150C942916CE
:100030000C94B00A0C94B00A0C94B00A0C94B00A58
:100040000C94B00A0C94B00A0C94B00A0C94B00A48
:100050000C94B00A0C94B00A0C94B00A0C945B187F
:100060000C94B00A0C94B00A0C94B00A0C94B00A28
:100070000C94B00A0C94B00A0C94B00A0C94B00A18
:100080000C94A5180C94B00A0C94B00A0C94B00A05
:100090000C94B00A0C94B00A0C94B00A0C94B00AF8
:1000A0000C94B00A0C94B00A0C94B00A930290011C
:1000B00000001400930290010000140093029001CC
:1000C00000001400930290010000140093029001BC
:1000D00000001400930290010000140093029001AC
:1000E000000014009302900100001400930290019C
:1000F000000014009302900100001400930290018C
:10010000000014009302900100001400930290017B
:10011000000014009302900100001400930290016B
:10012000000014009302900100001400930290015B
:10013000000014009302900100001400930290014B
:10014000000014009302900100001400930290013B
:10015000000014009302900100001400930290012B
:10016000000014009302900100001400930290011B
:10017000000014000B029001000014009302900193
:10018000000014000B029001000014009302900183
:10019000000014000B029001000014009302900173
:1001A000000014000B029001000014009302900163
:1001B000000014000B029001000014009302900153
:1001C000000014000B029001000014009302900143
:1001D000000014000B029001000014009302900133
:1001E000000014000B029001000014009302900123
:1001F000000014000B029001000014009302900113
:10020000000014000B029001000014009302900102
:10021000000014000B0290010000140093029001F2
:10022000000014000B0290010000140093029001E2
:10023000000014004B029001000014009302900192
:10024000000014004B029001000014009302900182
:10025000000014004B029001000014009302900172
:10026000000014004B029001000014009302900162
:10027000000014004B029001000014009302900152
:10028000000014004B029001000014009302900142
:10029000000014000B029001000014009302900172
:1002A000000014004B029001000014009302900122
:1002B000000014004B029001000014009302900112
:1002C000000014004B029001000014009302900102
:1002D000000014004B0290010000140093029001F2
:1002E000000014004B02900100001400B8016009E6
:1002F00000001400EE01600900001400B8012003A2
:1003000000001400EE012003000014000B02200383
:1003100000001400EE01200300001400B8012003C7
:1003200000001400EE012003000014000B0260091D
:1003300000001400EE01C01200001400B8014006D5
:100340000000140093022003000014000B02600957
:1003500000001400EE01C01200001400B8012003D8
:100360000000140093022003000014000B0220037D
:1003700000001400EE01200300001400B801200367
:1003800000001400EE012003000014000B026009BD
:1003900000001400EE01C01200001400B801200398
:1003A0000000140093022003000014000B0220033D
:1003B00000001400EE01200300001400B801200327
:1003C00000001400EE012003000014000B0260097D
:1003D000000014004B026009000014009302600941
:1003E00000001400B801900100001400EE0190011B
:1003F000000014000B02900100001400EE019001B7
:1004000000001400B8019001000014000B029001DC
:1004100000001400EE01900100001400B8019001EA
:10042000000014008801900100001400B801900140
:1004300000001400EE0190010000140088019001FA
:1004400000001400EE01900100001400B8019001BA
:10045000000014008801900100001400B801900110
:1004600000001400EE0190010000140088019001CA
:1004700000001400B8019001000014000B0290016C
:1004800000001400EE019001000014004B029001E6
:10049000000014000B02900100001400B80190014C
:1004A00000001400EE01900100001400880190018A
:1004B00000001400B8019001000014000B0290012C
:1004C00000001400EE019001000014004B029001A6
:1004D000000014000B029001000014004B02900178
:1004E000000014000B02900100001400EE019001C6
:1004F00000001400B8019001000014000B029001EC
:1005000000001400EE01900100001400B8019001F9
:10051000000014008801900100001400B80190014F
:1005200000001400EE019001000014008801900109
:1005300000001400EE01900100001400B8019001C9
:100540000000140088019001000014009302900143
:1005500000001400EE0190010000140088019001D9
:1005600000001400018026015802000058022601F4
:1005700058020000580226015802000058022601C5
:1005800058020000580226015802000058022601B5
:1005900058020000580226015802000058022601A5
:1005A00058020000580226012C0100001E00B8016C
:1005B0002C0100001E004B02580200001E004B02DE
:1005C0002C0100001E004B022C0100001E00B8018F
:1005D0002C0100001E00B8012C0100001E000000CC
:1005E000580200001E000B022C0100001E000B022E
:1005F0002C0100001E000B022C0100001E00D20185
:100600002C0100001E00D201580200001E00000054
:10061000580200001E000B022C0100001E000B02FD
:100620002C0100001E000B022C0100001E00D20154
:100630002C0100001E00D201580200001E00000024
:10064000580200001E0088012C0100001E00D2018B
:100650002C0100001E00B8012C0100001E00260124
:100660002C0100001E002601580200001E00260179
:100670002C0100001E00B8012C0100001E004B02DE
:10068000580200001E004B022C0100001E004B020D
:100690002C0100001E00B8012C0100001E00B80152
:1006A0002C0100001E000000580200001E000B027A
:1006B0002C0100001E000B022C0100001E000B028A
:1006C0002C0100001E00D2012C0100001E00D201EE
:1006D000580200001E000000580200001E000B021D
:1006E0002C0100001E000B022C0100001E000B025A
:1006F0002C0100001E00D2012C0100001E00D201BE
:10070000580200001E000000580200001E00880170
:100710002C0100001E00D2012C0100001E00B801B7
:100720002C0100001E0026012C0100001E002601E5
:10073000580200001E00B8012C0100001E000B0230
:100740002C0100001E000B022C0100001E000B02F9
:100750002C0100001E000B022C0100001E000B02E9
:10076000C20100001E000B02C20100001E000B02AD
:100770002C0100001E000B02C20100001E000B0233
:10078000C20100001E000B02C20100001E000B028D
:100790002C0100001E004B02C20100001E000000E0
:1007A000960000001E0026012C0100001E00000023
:1007B000C20100001E00B8012C0100001E000B0247
:1007C0002C0100001E000B022C0100001E000B0279
:1007D0002C0100001E000B022C0100001E000B0269
:1007E000C20100001E000B02C20100001E000B022D
:1007F0002C0100001E000B02C20100001E000B02B3
:10080000C20100001E000B02C20100001E000B020C
:100810002C0100001E004B02C20100001E0000005F
:10082000C20100001E004B022C0100001E004B0202
:100830002C0100001E00BA022C0100001E00BA02AA
:100840002C0100001E006E022C0100001E006E0232
:10085000840300001E004B022C0100001E004B020E
:100860002C0100001E006E022C0100001E006E0212
:100870002C0100001E004B022C0100001E002A0269
:10088000840300001E002A022C0100001E002A0220
:100890002C0100001E00D2012C0100001E00D2011C
:1008A000580200001E00BA02580200001E00930207
:1008B0008C0A00001E001003B00400001E0010038C
:1008C0002C0100001E007003840300001E001003B2
:1008D0002C0100001E0070032C0100001E001003FC
:1008E0002C0100001E00BA022C0100001E004B0269
:1008F000B00400001E001003B00400001E0010032E
:100900002C0100001E0070032C0100001E001003CB
:100910002C0100001E00BA022C0100001E004B0238
:10092000580200001E00A403580200001E007003BD
:10093000580200001E007003580200001E007505DA
:10094000B00400001E002705B00400001E0097043C
:100950002C0100001E0017042C0100001E00700373
:10096000580200001E004B02580200001E004B02FD
:10097000580200001E0070032C0100001E00A4039A
:100980002C0100001E007003B00400001E004B028A
:10099000580200001E0070032C0100001E00A4037A
:1009A0002C0100001E007003580200001E004B02C4
:1009B000B00400001E001704C20100001E0017044E
:1009C000C20100001E0017042C0100001E001704C5
:1009D000C20100001E001704C20100001E0017041F
:1009E0002C0100001E001704C20100001E001704A5
:1009F000C20100001E0017042C0100001E00970415
:100A0000B00400001E001704C20100001E001704FD
:100A1000C20100001E0017042C0100001E00170474
:100A2000C20100001E001704C20100001E001704CE
:100A30002C0100001E001704C20100001E00170454
:100A4000C20100001E0017042C0100001E009704C4
:100A5000580200001E007003580200001E007505B9
:100A6000B00400001E002705B00400001E0097041B
:100A70002C0100001E0017042C0100001E00700352
:100A8000580200001E004B02580200001E004B02DC
:100A9000580200001E0070032C0100001E00A40379
:100AA0002C0100001E007003B00400001E004B0269
:100AB000580200001E0055042C0100001E0097047F
:100AC0002C0100001E005504080700001E000180D4
:100AD00000000000003E5B4F5B3E3E6B4F6B3E1CD8
:100AE0003E7C3E1C183C7E3C181C577D571C1C5EEF
:100AF0007F5E1C00183C1800FFE7C3E7FF001824C6
:100B00001800FFE7DBE7FF30483A060E262979296F
:100B100026407F050507407F05253F5A3CE73C5AA4
:100B20007F3E1C1C08081C1C3E7F14227F22145F81
:100B30005F005F5F06097F017F006689956A6060DC
:100B400060606094A2FFA29408047E040810207ED6
:100B5000201008082A1C08081C2A08081E1010105B
:100B6000100C1E0C1E0C30383E3830060E3E0E06A1
:100B7000000000000000005F0000000700070014F4
:100B80007F147F14242A7F2A1223130864623649B3
:100B90005620500008070300001C2241000041229B
:100BA0001C002A1C7F1C2A08083E080800807030A0
:100BB000000808080808000060600020100804020F
:100BC0003E5149453E00427F400072494949462115
:100BD00041494D331814127F1027454545393C4A89
:100BE00049493141211109073649494936464949A0
:100BF000291E0000140000004034000000081422E8
:100C00004114141414140041221408020159090655
:100C10003E415D594E7C1211127C7F494949363E56
:100C2000414141227F4141413E7F494949417F093C
:100C30000909013E414151737F0808087F00417F47
:100C400041002040413F017F081422417F40404045
:100C5000407F021C027F7F0408107F3E4141413EDD
:100C60007F090909063E4151215E7F09192946265F
:100C70004949493203017F01033F4040403F1F2063
:100C800040201F3F4038403F63140814630304783A
:100C900004036159494D43007F414141020408105A
:100CA00020004141417F0402010204404040404095
:100CB000000307080020545478407F284444383803
:100CC00044444428384444287F3854545418000875
:100CD0007E090218A4A49C787F0804047800447D4F
:100CE00040002040403D007F1028440000417F40EC
:100CF000007C047804787C08040478384444443840
:100D0000FC1824241818242418FC7C08040408481F
:100D10005454542404043F44243C4040207C1C2070
:100D200040201C3C4030403C44281028444C9090CB
:100D3000907C4464544C4400083641000000770025
:100D400000004136080002010204023C2623263C32
:100D50001EA1A161123A4040207A385454555921BD
:100D600055557941215454784121555478402054A7
:100D70005579400C1E5272123955555559395454F3
:100D8000545939555454580000457C410002457D62
:100D9000420001457C40F0292429F0F0282528F064
:100DA0007C545545002054547C547C0A097F4932B8
:100DB000494949323248484832324A4848303A4133
:100DC00041217A3A42402078009DA0A07D394444D8
:100DD00044393D4040403D3C24FF2424487E494363
:100DE000662B2FFC2F2BFF0929F620C0887E0903D4
:100DF00020545479410000447D413048484A3238FB
:100E00004040227A007A0A0A727D0D19317D262926
:100E1000292F28262929292630484D40203808081E
:100E2000080808080808382F10C8ACBA2F10283452
:100E3000FA00007B000008142A142222142A140845
:100E40009500220095AA005500AAAA55AA55AA0005
:100E50000000FF00101010FF00141414FF00101009
:100E6000FF00FF1010F010F0141414FC001414F71D
:100E700000FF0000FF00FF1414F404FC141417100A
:100E80001F10101F101F1414141F00101010F0005A
:100E90000000001F101010101F10101010F0100094
:100EA0000000FF101010101010101010FF100000A4
:100EB00000FF140000FF00FF00001F10170000FCDF
:100EC00004F414141710171414F404F40000FF00B1
:100ED000F714141414141414F700F714141417143A
:100EE00010101F101F141414F4141010F010F00040
:100EF000001F101F0000001F14000000FC14000061
:100F0000F010F01010FF10FF141414FF1410101044
:100F10001F00000000F010FFFFFFFFFFF0F0F0F0F7
:100F2000F0FFFFFF0000000000FFFF0F0F0F0F0F8B
:100F300038444438447C2A2A3E147E0202060602C3
:100F40007E027E0263554941633844443C04407E3E
:100F5000201E2006027E020299A5E7A5991C2A49B7
:100F60002A1C4C7201724C304A4D4D303048784842
:100F700030BC625A463D3E494949007E0101017E2E
:100F80002A2A2A2A2A44445F444440514A44404081
:100F9000444A51400000FF0103E080FF00000808C0
:100FA0006B6B083612362436060F090F0600001840
:100FB000180000001010003040FF0101001F010167
:100FC0001E00191D1712003C3C3C3C0000000000B4
:100FD000F0F89C8E8783878E9CF8F00000FEFF035C
:100FE00003030303070EFCF80000FEFF03030303E3
:100FF00003070EFCF80000FFFF00000000000000E7
:10100000FFFF0000FEFF8383838383C7EE7C3800ED
:1010100000F8FC0E07030303070EFCF800003F7FF7
:10102000E0C08080C0E07F3FFFFF010101010101BE
:1010300001FFFF0000FFFF0C0C0C0C1C3E77E3C10E
:1010400000007FFFC0C0C0C0C0E0703F1F00001F95
:101050003F70E0C0C0C0E0703F1F00007FFFC1C113
:10106000C1C1C1E3773E1C00001F3F70E0C0C0C09B
:10107000E0703F1F000000000001FFFF01000000C2
:10108000D5F08D14A1C881CFD9F1AF2000413A200D
:101090004241434B20544F204D454E5500474F4F42
:1010A000444259452100544F204541525448004183
:1010B0003A4E45585400465249454E4453204154F7
:1010C000204C41535400413A4E4558540048455233
:1010D000452C204C4954544C45204F4E4500413A34
:1010E0004E45585400594F552057494E00413A4EED
:1010F00045585400434F4D45204241434B204845FD
:1011000052452100413A4E4558540053544159200C
:101110004241434B2C20524F424F542100413A4E02
:101120004558540000003E4CD88888D84C3E0000FA
:10113000000000000000407E7F1F1F7F7F7E0808A8
:101140000C070000464F554E4420594F552C204364
:1011500041542100594F552057494E210047414DD8
:1011600045204F564552002F32353500533A000086
:101170007EFFC3C3FF7E00000080FFFF860C0800D7
:101180000000FFFF000000080C86FFFF8000004BFE
:10119000B7032BD7030323D70B0353AF0353AF027C
:1011A0000D000A05000008050200040B00040BFFF7
:1011B000FFFFFFFFFFFFFF3EBEAAF6FAA6BE3E0FEF
:1011C0000F0F0F0F0F0F0F0000000000FC86B73746
:1011D00006FC00000000000010985C5E203D262503
:1011E000253E58908000000098DAC060ECC4E0F022
:1011F000B6F6E040042000000411030B2D0F064F4B
:101200001B0F073533000000408082F498A88888BF
:10121000A898F48280400000120A4A3F1F1D1A1A43
:101220001D1F3F4A0A1200594F552057494E2100B1
:1012300047414D45204F564552002F00533A00007C
:10124000003E4CD88888D84C3E00000000000000CA
:1012500000407E7F1F1F7F7F7E08080C070000591B
:101260004F552057494E210047414D45204F564587
:1012700052000C1E3E7C22120C000C122244221240
:101280000C002F004341543A00000000788C84D4B5
:10129000C7C7D4848C780000000000000E029EFFB7
:1012A000F7F7FF9E020E000000000000788C84D447
:1012B000C7C7D4848C7800000000000C86C2FE3FB3
:1012C00017173FFEC2860C0000000000E0301050EF
:1012D0001818501030E00000000000C0F9EABA3FD2
:1012E0002F2F3FBAEAF9C00000413A4E455854004A
:1012F000444F574E20544F204455434B00544F20E9
:1013000053484F4F54204845415254005052455382
:10131000532041000C1E3E7C3E1E0C0047455420CD
:101320005245414459004C41535420524F554E446C
:101330000049204D45414E20465249454E44004308
:101340004F4D4520484552452C2050555353590088
:101350004E4F204D4F52452052554E4E494E47005C
:10136000464F554E4420594F552C2043415421009F
:10137000424557415245205448452055464F004666
:10138000494E442048494D210053494445204F4689
:10139000204D4F4F4E0042554753204F4E2054484A
:1013A0004520464152005741532043415054555225
:1013B000454420425900415254454D495320312063
:1013C000414E440048452050494C4F544544004349
:1013D0004154204E414D4544204B4F444552554EBB
:1013E0000059414E444558204C4F535420495453C2
:1013F00000555247454E5421004F42535441434CEF
:1014000045530041564F4944205A45524F532041BD
:101410004E440054484520464C4947485400434FE9
:101420004C4C454354204D4F4E455920464F520099
:1014300041534B2C204954204F42455953004120E1
:10144000524F424F5420444F4553204E4F54005763
:1014500048593F00544F20535041434500594F5580
:10146000204D55535420464C590055502F444F574A
:101470004E202020413A53454C454354004C45569C
:10148000454C200045584954003E00434F534D49B8
:101490004320524F424F5400080B0002020200004A
:1014A00009040000010202000005240010010524C7
:1014B0000101010424020605240600010705810339
:1014C00010004009040100020A00000007050202A2
:1014D00040000007058302400000040309041201D4
:1014E0000002EF02014041233680000101020301A6
:1014F00041726475696E6F204C4C43004172647593
:10150000696E6F204C656F6E6172646F00003919EF
:1015100011241FBECFEFDAE0DEBFCDBF11E0A0E0A7
:10152000B1E0E8ECF5E502C005900D92A833B107F3
:10153000D9F727E0A8E3B1E001C01D92A433B207B8
:10154000E1F71AE0C8E8DAE004C02197FE010E9442
:10155000DC2AC738D107C9F70E9474190C94E22A13
:101560000C9400008091390108952F923F924F9280
:101570005F926F927F928F929F92AF92BF92CF9223
:10158000DF92EF92FF920F931F93CF93DF9330E0A0
:10159000F901E80FF91F1E161F060CF098C08038DD
:1015A00091050CF094C0FB01E00FF11D1E161F0603
:1015B0000CF08DC0603471050CF089C0DB0177FF41
:1015C00004C0AA27BB27A61BB70BA770BB27EB013C
:1015D00077FD2796E3E0D595C795EA95E1F777FF84
:1015E00007C0219768E070E0FB01EA1BFB0BDF01FD
:1015F000069506950695602E712C7A01AE015695DA
:10160000542F442757954795480F591F4E545D4F07
:10161000BE01E8E0F0E02F014A1A5B0A6F3FFFEFDE
:101620007F070CF444C06C0110E000E04A01F0E8D0
:101630008F0E911CD7FC2EC06F3F760709F45AC05D
:10164000F701E00FF11FE4915A01A00EB11EF0E086
:101650001F010A2E01C0220C0A94EAF7F50130801E
:10166000232820821097B1F06730710599F0F701B7
:10167000E00FF11FE4915401A00EB11EF0E01F0134
:10168000042C02C0359427940A94E2F7F5013080C7
:10169000232820820F5F1F4FFFEFCF1ADF0A0217A8
:1016A00013072CF4E0E8CE16D10409F0C3CF6F5F26
:1016B0007F4FE20EF31E40585F4FFB01EC1BFD0B0A
:1016C000E615F70524F46830710509F0A7CFDF911E
:1016D000CF911F910F91FF90EF90DF90CF90BF902F
:1016E000AF909F908F907F906F905F904F903F90C2
:1016F0002F900895109709F0BACFCCCF480F592FEB
:10170000511D1416150684F5803891056CF597FF68
:1017100002C090E080E04138510514F040E850E00C
:10172000481BFB01E770FF2721E001C0220FEA956B
:10173000EAF777FF02C0695F7F4FFB0133E0F59561
:10174000E7953A95E1F7F695FE2FEE27F795E795A1
:10175000E80FF91FEE54FD4F415030F08191DF0149
:101760001197822B8C93F8CF08956034710510F493
:101770000C947E0B08952F923F924F925F926F923E
:101780007F928F929F92AF92BF92CF92DF92EF9211
:10179000FF920F931F93CF93DF93CDB7DEB72E97B2
:1017A0000FB6F894DEBF0FBECDBF5B016A013E8766
:1017B0002D87261737070CF001C1E616F7060CF443
:1017C00015C1621773075CF03A2D2B2DAD84BE84D2
:1017D0003D872E87382F292FC601C32ED22EAE1457
:1017E000BF04A1F5C816D90654F0382F292F8C153F
:1017F0009D0514F43C2D2D2D6C01832F922F0C157B
:101800001D052CF0801791070CF4C80186018F5F2D
:10181000482F401BB501C8012E960FB6F894DEBFC5
:101820000FBECDBFDF91CF911F910F91FF90EF9031
:10183000DF90CF90BF90AF909F908F907F906F90F0
:101840005F904F903F902F900C94B50B302F212F2D
:101850008C01832F922F3E2D2F2D7501A32EB22E9A
:101860009601201B310B38872F834D855E854E19DD
:101870005F095A8749873C01601A710A95012E1940
:101880003F093A832983AC014C195D095C834B8382
:10189000C5012D853E85821B930B9C878B872A155E
:1018A0003B05F1F1215031093E832D834701512C35
:1018B000412C312C212C8D819E8188159905ACF10C
:1018C000C10169857A850E94C82A9B01200F311FBA
:1018D000C20169817A810E94C82A600F711F4F81FD
:1018E0005885240E351E460C571C621773071CF4CE
:1018F000922F9B01692F6F5F462F421BB401C901D4
:101900000E94B50B5FEF851A950AD5CF3C2D2D2D82
:101910006C01832F922F3A2D2B2DAD84BE8475C080
:101920004D855E855E834D83C1CFC4012D853E8587
:10193000821B930B2B813C81829FA001839F500DC2
:10194000929F500D11245E834D83C4018E199F090F
:10195000869D7001879DF00C969DF00C1124A814B3
:10196000B9040CF455C08D819E816B857C850E94E5
:10197000C82A9B012C0D3D1DC70169817A810E94F7
:10198000C82A600F711F4D815E818B819C81480F39
:10199000591F5E834D83E60CF71C621773071CF416
:1019A000922F9B01692F6F5F462F421BB401C90123
:1019B0000E94B50B9FEF891A990AD1CF2D853E85DC
:1019C000E216F3060CF00BCFE616F7060CF49ECFEA
:1019D000302F212F8A016C01832F922F3D852E8578
:1019E0007E876D875701E32EF22EEECE4D855E8504
:1019F000E416F5060CF434CF302F212F8601C32EC8
:101A0000D22E3E2D2F2DED84FE843D872E8728CFAC
:101A10002E960FB6F894DEBF0FBECDBFDF91CF91EB
:101A20001F910F91FF90EF90DF90CF90BF90AF90FC
:101A30009F908F907F906F905F904F903F902F90EE
:101A4000089590912E0780912B0792FF08C08F5F19
:101A500084301CF480932B07089583E0FBCF93FF21
:101A600005C081508D3FB4F78DEFF4CF181614F4F4
:101A70008150F0CF882381F38F5FECCFE2EBF2E06F
:101A8000A0E0B8E000800EBC8111012C1197A0FDF0
:101A9000FDCF0192B9F70DB40895FC018091B10218
:101AA000882311F13FB7F89482E08093E9002091F8
:101AB000F200822F90E01816190614F481E090E0ED
:101AC000882339F0289844E64093B0024091F10011
:101AD0004083222339F02091F200211103C02BE62C
:101AE0002093E8003FBF08958FEF9FEF08952FB731
:101AF000F89483E08093E9009091E800892F807248
:101B000095FF04C09091F20080E4891B2FBF0895D7
:101B10008091A80281110DC082E08093A40284E02C
:101B20008093A5021092A7021092A60281E08093F2
:101B3000A80284EA92E00895CF93DF931F92CDB775
:101B4000DEB76983DC01ED91FC910280F381E02D29
:101B500041E050E0BE016F5F7F4F09950F90DF912C
:101B6000CF91089583E08093E9008091F20088236B
:101B700019F08AE38093E80008950E94770D90E0C1
:101B80000895CF93DF931F92CDB7DEB7FC01848514
:101B9000958597FD08C02FEF3FEF358724870F907D
:101BA000DF91CF910895CE0101960E944D0D0197CE
:101BB00019F4898190E0F3CF8FEF9FEFF0CF0F936F
:101BC0001F93CF93DF931F92CDB7DEB78C01FC013B
:101BD0008485958597FF0BC0CE0101960E944D0D1F
:101BE000019771F4898190E0F80195878487F80165
:101BF000848595850F90DF91CF911F910F91089566
:101C00008FEF9FEFF1CFFC018485958597FD0BC089
:101C10009FB7F89482E08093E9008091F2009FBF23
:101C200090E0019608959FB7F89482E08093E900D0
:101C30008091F2009FBF90E0089540919E025091E4
:101C40009F0220919C0230919D0242175307B4F4E9
:101C50009091E8009570E1F39091E80092FD19C031
:101C60008093F10080919E0290919F0201968F7364
:101C70009927892B19F48EEF8093E80080919E02BA
:101C800090919F02019690939F0280939E0281E023
:101C9000089580E00895DF92EF92FF920F931F93D3
:101CA000CF93DF93D82E8A01EB017B01E40EF51E62
:101CB000CE15DF0559F0D7FE12C0FE0184910E94B7
:101CC0001D0E21968111F4CF0FEF1FEFC801DF9198
:101CD000CF911F910F91FF90EF90DF900895888131
:101CE000EECF0F931F93CF93DF931F92CDB7DEB745
:101CF00082E0898342E450E068E974E180E80E9470
:101D00004B0E0E94880DDC0112960D911C9101155D
:101D1000110589F0D801ED91FC910280F381E02D4D
:101D2000BE016F5F7F4FC801099597FD04C0F801A0
:101D300000851185ECCF89810F90DF91CF911F91A4
:101D40000F910895615030F02091F100FC01208343
:101D50000196F8CF289884E68093B0020895AF9258
:101D6000BF92CF92DF92EF92FF920F931F93CF9388
:101D7000DF936C017B018B01040F151FEB015E01EA
:101D8000AE18BF08C017D10759F06991D601ED917F
:101D9000FC910190F081E02DC6010995892B79F71E
:101DA000C501DF91CF911F910F91FF90EF90DF90D0
:101DB000CF90BF90AF9008953FB7F89480914901BC
:101DC00090914A01A0914B01B0914C0126B5A89B7E
:101DD00005C02F3F19F00196A11DB11D3FBFBA2FBD
:101DE000A92F982F8827BC01CD01620F711D811D7D
:101DF000911D42E0660F771F881F991F4A95D1F702
:101E000008958F929F92AF92BF92CF92DF92EF92FE
:101E1000FF926B017C010E94DC0E4B015C01C1143E
:101E2000D104E104F104B9F00E94DC0E68197909CB
:101E30008A099B09683E73408105910580F321E082
:101E4000C21AD108E108F10888EE880E83E0981ED6
:101E5000A11CB11CE4CFFF90EF90DF90CF90BF901A
:101E6000AF909F908F9008958F929F92AF92BF9264
:101E7000CF92DF92EF92FF920F931F93CF93DF9356
:101E80006C017B018A0180910E01882309F45CC0FA
:101E90008091B102882309F457C08091A30280FF8A
:101EA00005C08091E00082608093E000E801B12CE1
:101EB0008AEFA82E93E0892E2AE3922E209711F420
:101EC000BB20D9F10E94770D81110AC0AA94AA20E3
:101ED000D9F161E070E080E090E00E94010FEECF68
:101EE0008C171D0611F00CF08C2F9FB7F894809280
:101EF000E9002091E80025FD02C09FBFDFCF282F19
:101F000030E0C21BD30BF701815020F04191409388
:101F1000F100FACFE20EF31EBB2021F09092E80010
:101F2000B12CEBCF8091E80085FDE7CF9092E800DF
:101F3000BB24B394209709F3F3CF5D9884E6809394
:101F4000A202101611063CF081E090E0F6019383A6
:101F5000828310E000E0C801DF91CF911F910F91C3
:101F6000FF90EF90DF90CF90BF90AF909F908F90B9
:101F7000089520914101E0913F01F0914001CF018E
:101F800002969093400180933F01222319F085919E
:101F900094910895808191810895E1E7F0E0808136
:101FA0008D7F8083109291004698479810923E0151
:101FB0000895CF92DF92EF92FF92CF93DF930E942A
:101FC000B90F811520E8920741F4DF91CF91FF907E
:101FD000EF90DF90CF900C94CD0F21E020933E0145
:101FE000813020E8920751F480913C0190913D01AD
:101FF0009093400180933F010E94B90F97FD05C067
:1020000020913B01222309F45BC020913A01211168
:1020100057C021E020934201EC01DF77209709F0BF
:1020200052C081E08093430146983FE9C32E3FE0D0
:10203000D32EE12CF12CCAEFD0E0E0912607F091ED
:1020400027070995811103C081E0809343018091A6
:102050004201882329F080914301882309F446C076
:1020600047980E94B90F009709F444C09C01DE0113
:102070000E94992ADC01CB0129E0B595A795979597
:1020800087952A95D1F7109290002AE0209391002D
:10209000D0929900C092980080934401909345019A
:1020A000A0934601B09347018091710082608093B4
:1020B0007100DF91CF91FF90EF90DF90CF90089566
:1020C00010924201A9CF9E0150E040E060E472E42A
:1020D0008FE090E00E94452A69017A0181E0C81AE8
:1020E000D108E108F10810924301A7CF4699B8CF73
:1020F000479AB7CF8FEF9FEFDC01C5CF9C01E1E797
:10210000F0E090819D7F908381E080934101309346
:10211000400120933F0130933D0120933C010C94FA
:10212000D90F2D9A0895BC0190E080E00C94010F26
:102130008FB18095807F669B88601C9B846008952A
:102140005C988EBD00000DB407FEFDCF5C9A08952B
:1021500090919702982329F490919802982381E016
:1021600009F480E00895CF93C82F0E949810982F0B
:102170009C2381E09C1380E0CF91089580E00C9433
:102180003E0D80389105B8F460347105A0F420E16B
:1021900091E061FD94E060FD990F62FD9295687F8A
:1021A000269FD0011124A80FAE54BD4F8C9140FF43
:1021B00003C0892B8C93089590958923FBCF2F9290
:1021C0003F924F925F926F927F928F929F92AF92C7
:1021D000BF92CF92DF92EF92FF920F931F93CF9314
:1021E000DF9300D000D0CDB7DEB78C017C836B834A
:1021F0006D5F7F4F41E00E94C1106B817C81635015
:10220000710941E0C8010E94C11041E06B817C81ED
:10221000C80103960E94C11041E06B817C81C80116
:1022200003970E94C11081E090E09A838983D12CAA
:10223000C12C83E0E82EF12C9AEF292E33243A9416
:102240002EEFA22EBB24BA948FEFC81AD80A898128
:102250009A8102969A838983A80EB91E3601600E70
:10226000711E41E08B809C808E0C9F1CB401C301C9
:102270000E94C11028014C185D0841E0B401C20160
:102280000E94C11041E08B809C808E189F08B40191
:10229000C3010E94C11041E0B401C2010E94C110FB
:1022A0008B809C808C0C9D1C41E0B40138016E0C2D
:1022B0007F1CC3010E94C11041E0B40128014E18E7
:1022C0005F08C2010E94C1108B809C808C189D0801
:1022D00041E0B401C3010E94C11041E0B401C20158
:1022E0000E94C110CE14DF04BCF00F900F900F902D
:1022F0000F90DF91CF911F910F91FF90EF90DF90A2
:10230000CF90BF90AF909F908F907F906F905F9095
:102310004F903F902F9008959FEFA916B90609F4AA
:1023200093CF81E0E81AF10892E0290E311CA20C4B
:10233000B31C8ACF8F929F92AF92BF92CF92DF92BF
:10234000EF92FF920F931F93CF93DF936D3089F03D
:10235000C0909502D09096026A30D1F41092940207
:102360001092930288E0C80ED11CD0929602C092BF
:10237000950281E090E0DF91CF911F910F91FF9046
:10238000EF90DF90CF90BF90AF909F908F90089587
:102390000091930210919402E5E06E9FE0011124F8
:1023A000C053D54F4801F12CF5E0E12CFF1629F080
:1023B000CE010196FE01E490EC01B12CA12C4E2D32
:1023C0004170B6016A0D7B1DC4010E94C110E694E4
:1023D000FFEFAF1ABF0A88E0A816B10481F7F394A3
:1023E000EFEF8E1A9E0AF6E0FF12DECF0A5F1F4F54
:1023F0001093940200939302BCCFEF92FF920F933D
:102400001F93CF93DF938C017B01D0E0C0E0F701F5
:10241000EC0FFD1F6491662339F0C8010E949A11E8
:10242000892B11F02196F3CFCE01DF91CF911F912F
:102430000F91FF90EF900895DF92EF92FF920F932C
:102440001F93CF93DF937C01D22E8B01040F111DBC
:10245000EB0177FF02C0D0E0C0E0C80101341105F4
:1024600014F080E490E0C817D9073CF44D2DBE016C
:10247000C7010E94C1102196F0CFDF91CF911F912B
:102480000F91FF90EF90DF900895EF92FF920F93DE
:102490001F93CF937C018B01C42F0E94B50BB80111
:1024A000635F7F4F4C2FC7010E94B50B21E04EE0C8
:1024B000B801C7010E941C12C7018C0F911D21E0B9
:1024C0004EE0B8010197CF911F910F91FF90EF90CF
:1024D0000C941C12CF93DF93C4E1D0E020E04EE0D7
:1024E00068E170E0CE010E941C122196CC36D10525
:1024F000A9F7DF91CF9108958150823040F4809107
:102500003801882321F00E94CD0F109238010895E0
:10251000089590E080E008958F929F92AF92BF92CD
:10252000EF92FF920F931F93CF93DF93CDB7DEB758
:10253000A1970FB6F894DEBF0FBECDBF7C01FA01A4
:10254000CB0119A2223008F42AE08E010F5D1F4F43
:10255000822E912CB12CA12CBF01A50194010E94C7
:10256000772AF901CA016A304CF5605DD8016E9393
:102570008D01232B242B252B79F790E080E01097F9
:1025800061F0FD0101900020E9F73197AF014A1B8E
:102590005B0BBD01C7010E94AF0EA1960FB6F89468
:1025A000DEBF0FBECDBFDF91CF911F910F91FF9086
:1025B000EF90BF90AF909F908F900895695CD6CFB9
:1025C000AC01990F660B770B2AE080E397E00C943F
:1025D0008C12CF92DF92EF92FF926B017C01C114BB
:1025E000D104E104F10441F00E94CE29A701960133
:1025F0000E94452A6B017C01C701B601FF90EF9054
:10260000DF90CF900895EF92FF921F93CF93DF93C7
:102610002091C6063091C7064091BF06C90160E807
:1026200070E00E94C82AEC01DD27CE018F529E4F38
:102630007C01CF5ADE4F4423D1F08FEFF701808326
:10264000188241504093BF068091BE06882319F03E
:1026500081508093BE062F5F3F4F3093C706209373
:10266000C606DF91CF911F91FF90EF900895809162
:10267000C40681113BC065E070E080E090E00E94FC
:10268000E9128091C6069091C7060A970CF0BDC06A
:1026900080E38093C5061EE01093C3061093C40622
:1026A0001092C2068FEF8093C1068093C00680917E
:1026B000C6069091C7060A97CCF01730B8F064E6CA
:1026C00070E080E090E00E94E912673071050CF044
:1026D000BBC0812F8450990BBC01072E000C880BC6
:1026E000990B0E94E9126E5F6093C1068091C50646
:1026F000F70180838091C2063091C10691E0831377
:1027000090E02091C0068213BBC092608F3F09F019
:10271000C2C09883911144C09091BE069111BDC072
:102720003F3F49F0831708F4A1C0F82FF31B3F2F58
:1027300041E0333008F040E02F3F71F0682F70E047
:1027400030E0FB013196E217F30734F02E5F3F4F84
:1027500091E0261737070CF490E021E0823048F032
:102760006091C3066150770B21E0861717060CF4C1
:1027700020E041111CC091111AC0211118C064E65B
:1027800070E080E090E00E94E9126D3271050CF07B
:102790006FC08881877E8860888383E08093BE06CF
:1027A0008091BE06882319F081508093BE068091E7
:1027B000C2068F5F8093C2062091C40621502093E9
:1027C000C4068091C6069091C70601969093C706ED
:1027D0008093C606211145CF41970CF442CF64E6A1
:1027E00070E080E090E00E94E9126F307105810591
:1027F00091050CF036CF62E070E080E090E00E943E
:10280000E9126E5F6093BF062CCF18E0160F63E0ED
:1028100070E080E090E00E94E9126150F8E06F0201
:10282000C00111246091C506680F792F711D6933AD
:10283000710514F068E370E06832710514F468E221
:1028400070E06093C50628CF6F3071050CF04ECF55
:10285000E12FE550FF0BBF01072E000C880B990BF1
:102860000E94E9126E5F6093C00640CF381B60CFB4
:10287000623371050CF094CF8881877E80618CCFA4
:102880002F3F09F446CF422F50E04F5F5F4F841730
:10289000150609F03ECF94603CCF892F85CF2FB726
:1028A000F8946091B2067091B3068091B40690914D
:1028B000B5062FBF611571058105910511F00E94C4
:1028C0001D2A1092C7061092C60680E38093C506A3
:1028D0001092C4061092C3061092C2068FEF809326
:1028E000C1068093C0061092BF061092BE0680916A
:1028F000C6069091C706803891051CF40E94031308
:10290000F6CF80E190E09093BD068093BC061092D4
:10291000BB061092BA061092B90682E08093B80600
:102920001092B7061092B6068EE18093280780E2D7
:1029300090E090932A078093290710922B0710921A
:102940002C0710922F0710922E0786E080932D07F8
:10295000089580930201813029F40E944F1486E685
:1029600095E05EC0823009F064C08CE890E09093FE
:102970006B0280936A0210926C0210925F021092B6
:102980005E0210925B0210925A0210925D02109247
:102990005C0210926F02109251021092600210922B
:1029A00059021092580210926E0210926D0288E342
:1029B00090E0909367028093660286E090E09093A7
:1029C00069028093680281E0809357021092560258
:1029D00010926502109262021092610210926402DB
:1029E00010926302109255021092540210925302F8
:1029F0001092520284E18093280788E290E090933D
:102A00002A078093290710922B0710922C07109207
:102A10002E0710922F078FEF80932D078CEA90E0FE
:102A20000E947E1081E08093380182E080939902B9
:102A3000089584E690E090937F0280937E0288E27E
:102A400090E0909381028093800225E020937702AA
:102A500010928202109273021092720210928502FA
:102A600010927802109284021092830210927D02DA
:102A700010927A021092790210927C0210927B02DC
:102A800024E030E0309375022093740221E020931B
:102A90007602109271021092700220E120932807B2
:102AA00090932A078093290710922B0710922C07E6
:102AB00010922E0710922F0786E080932D074FCF9C
:102AC0000C942F2A82E090E00E946015882331F058
:102AD0003E9A3F9A81E0809339010895109239011E
:102AE0003E983F9808951F93CF93DF93EC01162FE4
:102AF0000E94262A96E0899F9001112421503109D5
:102B000010F430E020E080E890E0821B930B97FD0A
:102B100001969595879597FF02C090E080E090938D
:102B2000940280939302612F70E0709396026093F9
:102B30009502BE0180E397E0DF91CF911F910C9445
:102B4000FD11FF920F931F93CF93DF93EC01F62EAD
:102B500008811981C8010E942F2AF81621F06F2DD3
:102B6000C8010E94372ACE01DF91CF911F910F91AA
:102B7000FF9008951F920F920FB60F9211248F931A
:102B80009F938091E1009091E100937F9093E10009
:102B900083FF0FC01092E90091E09093EB00109238
:102BA000EC0092E39093ED001092B10298E09093C4
:102BB000F00082FF22C093E09093E9009091F20030
:102BC000992319F09AE39093E8009091A202992337
:102BD00041F09091A20291509093A202911101C0F4
:102BE0005D9A9091B002992341F09091B00291507A
:102BF0009093B002911101C0289A84FF18C080916F
:102C0000E2008E7E81608093E2008091E1008F7E01
:102C10008093E1008091A3028E7E80618093A30265
:102C20009F918F910F900FBE0F901F90189580FF6E
:102C3000F7CF8091E2008E7E80618093E2008091E8
:102C4000E1008E7E8093E1008091A3028E7E816000
:102C5000E5CF1F920F920FB60F921124CF92DF9201
:102C6000EF92FF920F931F932F933F934F935F9396
:102C70006F937F938F939F93AF93BF93EF93FF9344
:102C8000CF93DF93CDB7DEB76C97DEBFCDBF109289
:102C9000E9008091E80083FF25C068E0CE014596F9
:102CA0000E94A20E82EF8093E8008D8987FF39C0D1
:102CB0009091E80090FFFCCF982F907609F034C1F6
:102CC0009E894F89588D2F89F88C911131C0803899
:102CD00061F58091A1028093F1001092F1008EEFD6
:102CE0008093E8006C960FB6F894DEBF0FBECDBFA0
:102CF000DF91CF91FF91EF91BF91AF919F918F9114
:102D00007F916F915F914F913F912F911F910F9103
:102D1000FF90EF90DF90CF900F900FBE0F901F901D
:102D200018959EEF9093E800C7CF1092F100D5CF91
:102D3000913059F48111D3CF4130510581F6809102
:102D4000A1028D7F8093A102CACF933049F48111F3
:102D5000C6CF4130510519F68091A1028260F2CFB1
:102D6000953041F48091E80080FFFCCF20682093EB
:102D7000E300B5CF963009F0A9C00B8D1C8D22E081
:102D80001092E90010929F0210929E02F2122EC041
:102D900010929D0210929C020E94710E1F8299E077
:102DA0009983FA8291E09E8390EA98879AEF9987B7
:102DB00020919E0230919F02275F3F4F3C832B83DF
:102DC0008D831092E90010929F0210929E02109340
:102DD0009D0200939C0249E050E0BE016F5F7F4F6F
:102DE00080E00E944B0E0E94710E79CF10939D02DD
:102DF00000939C020E94880DDC0112960D911C919B
:102E00000115110509F451C1D801ED91FC9104801F
:102E1000F581E02DBE016B5E7F4FC80109950097DB
:102E200009F03EC1F80100851185EACFF3E0FF12F9
:102E30000EC08F89882309F440C0823061F440E8D5
:102E400060E18CEF94E10E940619811148CF81E284
:102E50008093EB0047CF813029F440E86BE080EFAE
:102E600094E1F1CF833099F70E94880DDC0112962E
:102E7000ED90FC908E010F5F1F4F6801E114F1048B
:102E800079F0D701ED91FC910680F781E02DB80132
:102E9000C7010995080F111DF701E084F184EECFF9
:102EA000D8011C92F60101900020E9F73197BF018B
:102EB0006C197D0940E0C601C6CF6AED74E1FB01E3
:102EC000449150E080E80E944B0E09CF973009F4FE
:102ED000BECF983021F481E08093F10000CF99308B
:102EE00009F0FDCE837009F0B2CFE4E1F1E081E0BA
:102EF00031E096E32191222371F08093E900309331
:102F0000EB00DF0111972C912093EC009093ED00E2
:102F10008F5F873079F78EE78093EA001092EA009E
:102F20008F898093B102DBCE8B8D9C8D1092E9004E
:102F300010929F0210929E0290939D0280939C0299
:102F4000898D811192C08E899D89913A49F481328F
:102F500009F07DCF47E050E067E071E080E0B3CF5B
:102F6000913209F074CF833269F48F89988DB0E083
:102F7000A0E08093030190930401A0930501B09316
:102F80000601ADCE803269F48091E80082FFFCCF6B
:102F900067E087E091E00E94A20E8BEF8093E8004B
:102FA0009ECE823209F09BCE8F8980930E01EEEF88
:102FB000FFE7859194918B3F9C4D51F1E0E0F8E063
:102FC0008091070190910801A0910901B0910A0137
:102FD000803B9440A105B105F1F480910E0180FD84
:102FE0001AC0EE3F8AE0F80789F587E797E79183F3
:102FF0008083809160008093A00288E19BE00FB6FF
:10300000F894A895809360000FBE9093600067CEFF
:10301000EEEFFAE0D5CF808191818737974709F0AD
:103020005ECEA89580916000886180936000809159
:10303000A00280936000EE3F2AE0F20789F08091C1
:10304000FE0A9091FF0A9183808349CE808191810D
:103050008737980751F29093FF0A8093FE0AC5CFF5
:103060001092FF0A1092FE0A3ACE0E94880DDC01EF
:1030700012960D911C910115110509F4E8CED801A5
:10308000ED91FC910190F081E02DBE016B5E7F4FD0
:10309000C8010995811123CEF80100851185EBCF78
:1030A000181619060CF41BCED2CEF1E0FF12BECEDC
:1030B0006EED74E104CF1F920F920FB60F921124A0
:1030C0002F933F938F939F93AF93BF938091B206BB
:1030D0009091B306A091B406B091B5063091480125
:1030E00023E0230F2D3758F50196A11DB11D209324
:1030F00048018093B2069093B306A093B406B093B0
:10310000B5068091490190914A01A0914B01B0917F
:103110004C010196A11DB11D8093490190934A0174
:10312000A0934B01B0934C01BF91AF919F918F91B0
:103130003F912F910F900FBE0F901F90189526E88A
:10314000230F0296A11DB11DD2CF1F920F920FB671
:103150000F9211242F933F934F935F936F937F931D
:103160008F939F93AF93BF93EF93FF93809144010D
:1031700090914501A0914601B0914701892B8A2B7E
:103180008B2B09F440C08091430181110BC088B1A1
:1031900090E4892788B980914201882319F088B189
:1031A000805888B98091440190914501A0914601D1
:1031B000B0914701181619061A061B069CF4809157
:1031C000440190914501A0914601B09147010197BA
:1031D000A109B1098093440190934501A093460150
:1031E000B0934701FF91EF91BF91AF919F918F9164
:1031F0007F916F915F914F913F912F910F900FBEF3
:103200000F901F9018950E94D90FECCFEF92FF926C
:103210000F931F93CF93DF93F82E192FE62E042FD1
:1032200081E0860F880F0E941D0E83E00E941D0E14
:10323000CF2DD12FEC0EFD2EF11CCE15DF05B9F0F0
:1032400007FF13C0FE0184910E941D0E182F80E01D
:103250000E941D0E812321968111EFCFDF91CF9126
:103260001F910F91FF90EF9008958881EDCF81E03D
:10327000F5CFE8ECF6E01382128288EE93E0A0E04E
:10328000B0E084839583A683B7838EE191E0918338
:1032900080838FEF9FEF95878487E0E3F7E01382C9
:1032A000128280E391E09183808382EB9AE0909395
:1032B00027078093260780E090E890932507809366
:1032C000240746983E9A47983F9AE8E2F7E013822F
:1032D000148286E085831682178280E1808380E2F3
:1032E00090E0928381830895CF93DF93CDB7DEB7CB
:1032F00060970FB6F894DEBF0FBECDBF789484B54B
:10330000826084BD84B5816084BD85B5826085BDE1
:1033100085B5816085BD80916E00816080936E006F
:103320001092810080918100826080938100809161
:103330008100816080938100809180008160809312
:103340008000809191008260809391008091910033
:1033500081608093910080919000816080939000C3
:103360008091C10084608093C1008091C10082601F
:103370008093C1008091C10081608093C1008091E1
:10338000C30081608093C3008091C00082608093FD
:10339000C0008091C20081608093C20080917A0059
:1033A000846080937A0080917A00826080937A00B2
:1033B00080917A00816080937A0080917A008068A1
:1033C00080937A001092B1021092A1021092A3028F
:1033D0008091D70081608093D70080EA8093D800E5
:1033E00089B5806189BD89B5826089BD09B400FE57
:1033F000FDCF61E070E080E090E00E94010F8091DD
:10340000D8008F7C80618093D8008091E000807F1D
:103410008093E0008091E1008E7E8093E1008DE05A
:103420008093E200559A209A81EC80937C0085B1CC
:10343000806F85B984B1877E84B984B1876E84B981
:103440005E9A5F988AB1806D8AB9769A6E9881B3D8
:10345000806F81BB899880B38D7080BB80E58CBD07
:1034600081E08DBD85E090E00E9493105F9A85E039
:1034700090E00E9493105E985C98E0E8F0E18DE89F
:1034800090E124912EBD00000DB407FEFDCF3196D2
:103490008E179F07B1F75C9A81E880936400809152
:1034A00065008160809365000E94BE1080E80E94E4
:1034B000B31002E010E0882381F085EA0E94A0109A
:1034C0002E982F982D9880916400806280936400DC
:1034D00081E083BF889513BEFCCF84E00E94B310C7
:1034E000882309F440C02D9884E80E94B3108823F3
:1034F000C1F00E94911088EC90E00E9493102F98E8
:103500001A8309836FEFCE0101960E94A11584EF03
:1035100091E00E9493102F9A84E80E94B3108111C9
:10352000FBCF84E10E94B3108823C1F00E94911068
:1035300088EC90E00E9493102E981A83098360E033
:10354000CE0101960E94A11584EF91E00E94931094
:103550002E9A84E10E94B3108111FBCF88EC90E099
:103560000E949310BACF0E9491100E94621581E0D0
:1035700090E00E946015182F147081FF10C0111187
:103580002E98B1EFEB2EFF24FA9480E40E94B31042
:10359000882309F446C02E9A2F9A0E94911082E344
:1035A00090E00E9493100E9498108111F8CF81E260
:1035B0008093000187EA0E94A0100E94621590E0AB
:1035C00080E00E94601591E0853A09F090E09093C8
:1035D0008C0281E090E00E94601591E0853A09F04C
:1035E00090E090938B020E944F14A3E04A2E512C3E
:1035F0008FB7F8944091B2065091B3066091B4062B
:103600007091B5068FBF10914F01112309F466C068
:1036100010924F0180E090E0892B51F30E9400004E
:10362000E7CF112331F024E0E216F10411F42E9AD1
:103630002F9881E00E943E0D00E128E540ED5FE01B
:10364000B70184E190E00E94B50A0E94BE108FE0AD
:1036500090E00E9493103FEFE31AF30A49E1E41669
:10366000F10409F092CF112311F02F9A2D9880E9DF
:1036700091E00E9493100E94911081E090E00E94DE
:10368000601580FF8CCF8AE090E00E9460159FEF6C
:10369000980F9E3F08F083CF22E330E030939402EE
:1036A0002093930228E330E0309396022093950212
:1036B0000BE010E0682F80E397E00E949A11C801A8
:1036C0000E9460150F5F1F4F0131110599F70E948D
:1036D000BE1088EE93E00E94931061CF809150015C
:1036E000942F981B892F90910001891748F48F5FC0
:1036F000891708F08FCF81E083BF889513BE8ACFEA
:1037000001E000934F014093500180914D01909151
:103710004E01019690934E0180934D018091980245
:10372000809397020E94981080939802812FE2EB79
:10373000F2E081118FEF0024819381938193819333
:103740000394D1F71092960210929502109294026F
:103750001092930280919B028F5F80939B026CE397
:103760000E94A82A90939A02909099029110B3C057
:1037700064E08BE894E10E94731500938E028091BF
:103780008C0288248394882329F082E080938F021E
:10379000F2E08F2E80918B02882339F0E82DF0E043
:1037A000E257FD4F83E080838394E82DF0E0E257F9
:1037B000FD4F108266246394680C6EE8E62E62E08A
:1037C000F62E06E110E074E1C72ED12CE0E2AE2E19
:1037D000B12CD0929402C09293021093960200935F
:1037E000950280919202981206C069E874E180E324
:1037F00097E00E94FD11B0929402A0929302109360
:10380000960200939502F70171907F0171103FC0FD
:1038100064E874E180E397E00E94FD119394045FF3
:103820001F4F9614B0F268E38AE694E10E94731584
:1038300080E80E94A810882331F0809192028111C3
:1038400036C08092920280E10E94A810882339F04D
:10385000809192028F5F861570F58093920288E0C6
:103860000E94A810811105C084E00E94A81088233E
:1038700059F0E0919202F0E0E257FD4F8081811112
:103880001DC083E0809399020E94BE10C3CE6DE7F5
:1038900074E180E397E00E94FD11472D50E070E055
:1038A00060E02AE080E397E00E948C12B7CF81505D
:1038B00080939202C8CF10929202D1CF80930201DE
:1038C00010928D02833029F484E08093010181E01D
:1038D000D9CF83E0FACFF1E09F12C0C088E00E9408
:1038E000A810811105C084E00E94A810882371F0FF
:1038F00080918D028F5F80938D02909101018917D5
:1039000028F0809102010E94A914BECF909102017B
:1039100080918D029130A1F5811110C066E18DE595
:1039200094E10E94731562E284E594E10E947315AC
:1039300068E389EE92E10E947315A6CF68E08130BA
:1039400069F48FE494E10E9473156AE18EE394E1D7
:103950000E94731566E280E394E1E8CF8EE194E182
:103960000E94731564E183E194E10E94731562E2A1
:1039700083E094E10E9473156EE289EF93E1D6CF64
:10398000923099F581110EC068E081EF93E10E94B9
:10399000731568E181EE93E10E94731564E28FEC88
:1039A00093E1C4CF8130C1F466E084EC93E10E94DE
:1039B000731560E186EB93E10E9473156AE186EA74
:1039C00093E10E94731564E286E993E10E94731506
:1039D0006EE289E893E1AACF6EE08FE793E10E945F
:1039E000731562E280E793E1A1CF811109C066E11E
:1039F00080E693E10E94731562E280E593E196CF41
:103A0000813049F466E18FE393E10E94731562E22D
:103A100081E393E18BCF823049F46EE086E293E15B
:103A20000E94731562E28CE193E180CF08E028E008
:103A300044E153E164E070E08CE390E00E94B50A59
:103A40006EE08CE093E10E94731568E18DEF92E1E6
:103A50000E94731568E280EF92E168CF22E0921233
:103A60000C94B42610928A0280E10E94B310811156
:103A700000938A0280E80E94A810882329F0809190
:103A80008A02826080938A0280E40E94B3108823B5
:103A900029F080918A02846080938A0280E20E94E9
:103AA000B310882329F080918A02886080938A026B
:103AB00080918A0280932E0700910201013009F063
:103AC00070C38091B9068150823008F4DCC08091C7
:103AD000BC069091BD0697FD079653E09595879596
:103AE0005A95E1F78C01065E1F4F8091C6069091B2
:103AF000C706801791071CF40E940313F6CF80912C
:103B0000B706882319F081508093B7060E94210DD3
:103B10002091B80680912B07082E000C990B280FD6
:103B2000392F311D37FF02C030E020E08091BC0604
:103B30009091BD06280F391F3093BD062093BC0617
:103B4000C9014E9797FD3AC19093BB068093BA0680
:103B50008091BA06422F481B40932807C901089656
:103B600097FD079643E0959587954A95E1F760E8BC
:103B700070E00E94C82A97FF02C080589F4FFC0146
:103B8000EF52FE4F10818F5A9E4FFC01008104704E
:103B9000812F90E0DC0190974091290750912A07EE
:103BA0001F3FC9F0BA01605F7F4F002351F06A17D1
:103BB0007B073CF0FC017F97FF24F394E617F7079F
:103BC0005CF4681779073CF0FF24F394FC0131960C
:103BD000E617F7070CF4F12C60918A0261FF03C02D
:103BE00068E06093B6066091B606662339F0FF2060
:103BF00029F06BEF60932C071092B6066091B60621
:103C0000662319F061506093B60660912C07460F49
:103C1000511D67FD5A9550932A07409329071F3F6E
:103C2000C9F0405F5F4F002309F4CDC0161694F42D
:103C3000A417B5070CF0CAC0BC016851710964171C
:103C400075070CF4C3C0C09790932A078093290787
:103C500010922C0780919B0280FD08C080912C0758
:103C60008F5F86300CF0BFC080932C0740912907EE
:103C700050912A07588B4F87493451050CF4B5C031
:103C800082E08093B9068090BA069090BB067401DA
:103C900097FE03C027E0E20EF11C13E0F594E794D1
:103CA0001A95E1F732E0E31AF108F7FE02C0F12CB1
:103CB000E12C540140E8A40EB11CB7FE03C057E04C
:103CC000A50EB11CB3E0B594A794BA95E1F7AE1474
:103CD000BF040CF4A8C16701A3E0CC0CDD1CAA95BD
:103CE000E1F7C818D908C7018F779927FC01EF526F
:103CF000FE4F10818F5A9E4FFC0170801F3F49F08C
:103D0000612F70E008E028E04FEB51E1C6010E940E
:103D1000B50A70FE0DC01F3F59F008E028E047EBE0
:103D200051E1812F8850990BBC01C6010E94B50A50
:103D300072FE0DC01F3F59F008E028E04FEA51E144
:103D4000E12FE052FF0BBF01C6010E94B50A71FED0
:103D50000DC01F3F59F000E120E14FE851E1812FF4
:103D60008851990BBC01C6010E94B50A872D90E0CD
:103D7000F3E095958795FA95E1F7837009F44FC1C3
:103D80001F3F09F44CC1813009F038C180919A027B
:103D9000E12FE850FF0BBF0108E028E047E851E1C0
:103DA0008F3008F439C18E5108E028E047E751E12F
:103DB000803108F431C14FE751E12EC11092BB06AA
:103DC0001092BA06C5CE16160CF044CF841795078C
:103DD0000CF040CFBC01685F7F4F641775070CF48F
:103DE00039CF409731CF85E03FCF80912E0780FFBC
:103DF000E7C06F8578896D5F7F4F7C836B83590146
:103E000093E0A90EB11CD9011D962F843888EDE0EE
:103E10002E0E311CA501B7FE02C0495F5F4F03E0C3
:103E2000559547950A95E1F74A01F1E08F1A9108F7
:103E3000CD01B7FD0796F3E095958795FA95E1F7E3
:103E40009C012F5F3F4F3A87298790912D07009162
:103E5000B70680912F0713E0440F551F1A95E1F71D
:103E600030E020E0BA01685071097E836D83FA0169
:103E70003197F887EF83605F7F4F7C876B8736973A
:103E8000FE87ED8749855A85481559050CF4ABC066
:103E900097FC90C0A4014F775527BA016F5A7E4F07
:103EA000FB01108110FF27C0011125C0BA016F521C
:103EB0007E4FFB0160816F3FF1F070E0ED84FE8486
:103EC000E20EF31EEA16FB064CF4DD24D394EF80D9
:103ED000F884E20EF31EAE14BF040CF0D12CEF8573
:103EE000F889E617F7073CF4665071096215730507
:103EF00014F40C94BE2811FF2BC0011129C0BA0183
:103F00006F527E4FFB0160816F3F11F170E06B01DA
:103F1000F8E1CF1AD108ED80FE80E20EF31EEA161A
:103F2000FB064CF477247394EB84FC84E20EF31EBE
:103F3000AE14BF040CF0712CC214D3044CF46D50B9
:103F40007109EB81FC81E617F70714F40C94CE2875
:103F5000612F70E0E3E075956795EA95E1F7F62F3C
:103F6000F3707F2E39F1BA016F527E4FFB016081F1
:103F70006F3F01F170E06B01F8E0CF1AD108ED80DE
:103F8000FE80E20EF31EEA16FB064CF466246394F0
:103F9000EF80F884E20EF31EEA14FB040CF4612CAB
:103FA000C214D3043CF4EF85F889E617F70714F43C
:103FB0000C94D828FFEF8F1A9F0A285F3F4F62CFDB
:103FC0008F8598899C838B831ACF92500CE393CF73
:103FD00062E076120C94E128882311F40C94E12815
:103FE00081500C94E12890932D070093B70680939D
:103FF0002F078E3108F447CE81E043CE823079F42A
:10400000212F2850330BB90180919A0208E028E053
:104010004FE651E181FDCFCEC6010E94B50A3FEFC8
:10402000E31AF30A54CE8091B706882329F08091D1
:104030009A028770843088F46091290770912A076A
:104040008091280790E020912E0720FF83C000E197
:1040500020E149EC52E10E94B50A109294021092BC
:10406000930210929602109295026CE671E180E341
:1040700097E00E94FD1140912F0750E070E060E052
:104080002AE080E397E00E948C1267E671E180E30A
:1040900097E00E94FD1178E6C72ED12CEE24E39420
:1040A000F12C9FEF9E0D80912D0744E153E18E1579
:1040B0001F0409F034F44AE752E1981710F442E77C
:1040C00052E108E028E070E060E0C6010E94B50A15
:1040D00042E0E40EF11C58E0C50ED11C67E0E61684
:1040E000F104F9F61091B906123009F040C00E94AF
:1040F0006A1248E568E170E084E190E00E944512B0
:1041000085E290E090939402809393028CE190E09A
:1041100090939602809395026DE571E180E397E0BC
:104120000E94FD11812F0E947C12113009F009C6F6
:104130001A82198265EACE0101960E94A115109398
:104140008C0288E00E94A810882309F49DCB10926D
:1041500099029ACB20919A0200E1223320F420E1C7
:1041600049EA52E178CF20E149E852E174CF1130B9
:10417000C9F60E946A1248E568E170E084E190E0C7
:104180000E94451288E290E09093940280939302FB
:104190008CE190E0909396028093950264E571E142
:1041A000BDCF023009F007C380916F028150823089
:1041B00010F40C9400298091600220915C023091EF
:1041C0005D022F5F3F4F30935D0220935C02882396
:1041D00019F08150809360020E94210DE0905E02F0
:1041E000F0905F02E114F104B9F0D0902E078D2D0C
:1041F0008E7F80932E07E114F104D9F484E00E94AD
:10420000A810811102C0D1FE56C181E190E09093C7
:104210005B0280935A020DC088E00E94B310909117
:104220002E07811102C090FFE0CF916090932E077E
:1042300011E080915A0290915B02009719F41E14CC
:104240001F04B4F4E80EF91EF0925F02E0925E02E1
:10425000019790935B0280935A021E141F0444F04E
:1042600010925F0210925E0210925B0210925A024C
:1042700080912B07082E000C990B029697FF02C025
:1042800090E080E0982F88272091580230915902C1
:10429000820F931F492F5527992790935902809396
:1042A000580220916A0230916B02241B350B309327
:1042B0006B0220936A0280916D0290916E02840FCE
:1042C000951F90936E0280936D0280915E02909193
:1042D0005F0297FD0396959587959595879591959E
:1042E00081959109FC01B89644E140932807F09329
:1042F0002A07E09329076091570240916602509186
:104300006702460F511D67FD5A95443051050CF464
:10431000D4C0509367024093660240916602509168
:1043200067024D3651055CF04CE650E05093670251
:104330004093660240915702419540935702409145
:1043400056024F5F40935602423388F14091650216
:1043500041112DC01092560241E0409365026091D8
:10436000660270916702685F7F4F7093620260938C
:1043700061024091680250916902435F5F4F509320
:104380006402409363024CE150E0461B570B4530FA
:1043900051050CF49CC041E050E05093550240930D
:1043A000540242E050E05093530240935202409135
:1043B0006502442331F16091610270916202409183
:1043C000540250915502460F571F5093620240937A
:1043D00061026091630270916402A0915202B091F7
:1043E00053026A0F7B1F709364026093630261340F
:1043F00071052CF44C5F5F4F4938510510F0109255
:10440000650243E050E0111102C041E050E0E40FCA
:10441000F51FA0916C024CE150E0A13011F048E290
:1044200050E0BC01695C7F4F4617570734F4425F88
:104430005F4F4E175F070CF0CBC6409160024111F1
:104440000FC04091680250916902DA0112966A1712
:104450007B0734F0445F5F4FE417F5070CF426C781
:1044600040916002411112C040916502442371F0F5
:104470004091630250916402C6968417950734F008
:104480004E5F5F4F4E175F070CF026C780915102B9
:1044900081112FC0243031050CF0B2C691E0909309
:1044A000510280912F078F5F80932F07893108F188
:1044B00090936F02A5C610E0BCCE44E050E050934C
:1044C00067024093660261956093570226CF4C3F86
:1044D0005F4F1CF44FEF5FEF60CF109255021092C8
:1044E00054025FCF401B40932D074CE34093600282
:1044F000A4CF203F3F4F0CF083C669E170E080E01D
:1045000090E00E94E91264577F4F70936B026093B2
:104510006A0263E070E080E090E00E94E91260933C
:104520006C02109251026CC647E052E168E270E002
:1045300000E120E180916A0290916B020E94B50A2D
:104540000091680210916902E0906602F0906702A3
:10455000670138E0C30ED11CB8016B5F7F4FC60105
:104560000E94DF1057014FEFA41AB40AB801685F28
:104570007F4F4FE0C5010E94B50BB801675F7F4FC9
:1045800041E1C7010E94B50BB801665F7F4F4FE064
:10459000C5010E94B50B055F1F4F41E0B801C7017F
:1045A00003960E94C11041E0B801C6010E94C110EB
:1045B00041E0B801C7010D960E94C11080916502CB
:1045C000882379F1009163021091640258015FEF32
:1045D000A51AB50AC0906102D090620276016FEF11
:1045E000E61AF60A21E043E0B801C7010E941C1256
:1045F00021E041E0B501C60102960E941C1221E0B3
:1046000043E0B801C7010E941C1221E041E0B5015E
:10461000C6010E941C1221E043E0B801C7010E94BC
:104620001C1280916002882329F080919A02877081
:10463000843030F580912E0749EC52E180FD15C0A1
:1046400080915E0290915F021816190664F08091C5
:104650005C0290915D0266E070E00E94B42A49E835
:1046600052E160FD02C049EA52E160912907709170
:104670002A078091280700E120E190E00E94B50A16
:104680001092940210929302109296021092950248
:104690006CE372E180E397E00E94FD1140912F07E7
:1046A00050E070E060E02AE080E397E00E948C1226
:1046B0006AE372E180E397E00E94FD1189E190E0F6
:1046C0000E94E012B8E6EB2EF12C14E080912D0749
:1046D00044E153E1811740F49EEF910F4AE752E124
:1046E000891710F042E752E108E028E070E060E04E
:1046F000C7010E94B50A1C5F78E0E70EF11C10317B
:1047000029F710916F021230E1F50E946A1248E514
:1047100068E170E084E190E00E94451285E290E05B
:1047200090939402809393028CE190E09093960290
:104730008093950260E372E180E397E00E94FD11AF
:10474000812F0E947C12113009F0FBC281E090E0C1
:104750009A83898365EACE0101960E94A115109380
:104760008B0288E00E94A810882309F48DC810925B
:10477000890210928802109287021092860284E0C9
:1047800081C81130E9F60E946A1248E568E170E0DC
:1047900084E190E00E94451288E290E090939402B8
:1047A000809393028CE190E090939602809395021F
:1047B00067E272E1C1CF809185028150823008F4B6
:1047C00088C18091780220918302309184022F5F0A
:1047D0003F4F3093840220938302882319F0815045
:1047E0008093780280E10E94B31090912E07882375
:1047F00009F416C1916090932E07E0902807F12CE0
:1048000080E40E94B310882321F080917602E80EA4
:10481000F11C80E20E94B310882321F0809176027F
:10482000E81AF10881E5E816F1041CF0A0E5EA2E8B
:10483000F12C98E0E916F1041CF4F8E0EF2EF12CCD
:10484000E092280788E00E94A8108823B9F08091A0
:104850007D02811113C081E080937D02EEE0EE0EB7
:10486000F11CF0927A02E0927902809129079091EE
:104870002A07069690937C0280937B0280917D02AA
:10488000882399F08091790290917A0220917402A4
:1048900030917502820F931F90937A028093790270
:1048A0008138910514F010927D028091820281116D
:1048B000D5C080917D02882391F180917E029091F4
:1048C0007F022091790230917A02AC014B5251095A
:1048D0002417350724F103968217930704F164E641
:1048E00070E080E090E00E94E91267337105810575
:1048F0009105ACF410927D0281E0809382028CE0FD
:1049000080937302809180029091810285970CF4CC
:1049100089C08AE190E09093810280938002809127
:10492000830290918402B2010E94B42A892B61F41F
:1049300080917E0290917F02843791052CF401963C
:1049400090937F0280937E0280917202882309F403
:104950006CC08150809372028091280790E0469647
:1049600020917E0230917F02821793075CF082E0F3
:104970008093820288E28093730284E180937102C3
:104980001092700280917D02882309F4A2C04091A8
:10499000790250917A0220917E0230917F02CA0101
:1049A0000496821793073CF011E0C9010C96841716
:1049B00095070CF410E040917B0250917C028091AD
:1049C000800290918102BA016F5F7F4F681779076B
:1049D0000CF47FC00D96841795070CF47AC0112350
:1049E00009F477C08091770210927D02882319F034
:1049F0008150809377022A5F3F4F253731050CF0B5
:104A00007FC130937F0220937E02809177028111D3
:104A100060C081E08093850285E080932F0759C0B4
:104A20009E7FE9CE88E290E076CF68E270E080E099
:104A300090E00E94E912685D6093720280918002AA
:104A40009091810285973CF08EE190E090938102F5
:104A50008093800281CF88E290E0F8CF813059F4D2
:104A600080917302882321F08150809373028ACF52
:104A70001092820287CF823009F084CF8091730236
:104A8000882319F0815080937302809171028823EA
:104A900019F081508093710280917102811114C1CB
:104AA00080917002811110C181E080937002809129
:104AB0007802811109C180912E0780FD05C1809186
:104AC0002D07833008F0FAC010922D0782E0809302
:104AD000850210E000E0B12CE4E1CE2ED12CE09074
:104AE0008302F0908402C801B6010E94C82A9C018A
:104AF000265F3F4FC701B2010E94B42A9B2D961B2F
:104B00009F7741E0B901892F90E00E94C110FDE13B
:104B1000BF0E095F1F4F0F33110509F740E868E327
:104B200070E090E080E00E947E0B809182028230F3
:104B300039F4C70166E070E00E94B42A039770F070
:104B4000609180027091810200E120E14FE352E127
:104B500080917E0290917F020E94B50A80917D0231
:104B6000882371F060917B0270917C0208E028E05C
:104B700044E153E18091790290917A020E94B50A52
:104B800080917802882329F080919A02877084307E
:104B9000E0F480912E0749EC52E180FD0BC0C70183
:104BA00066E070E00E94B42A49EA52E160FF02C068
:104BB00049E852E16091290770912A0780912807FE
:104BC00000E120E190E00E94B50A10929402109258
:104BD0009302109296021092950264E872E180E3CB
:104BE00097E00E94FD114091770250E070E060E094
:104BF0002AE080E397E00E948C1262E872E180E391
:104C000097E00E94FD1185E090E00E94E01268E6C6
:104C1000C62ED12CEE24E394F12C9FEF9E0D8091B3
:104C20002D0744E153E18E151F0409F034F44AE7DF
:104C300052E1981710F442E752E108E028E070E0F2
:104C400060E0C6010E94B50A22E0E20EF11C38E0E5
:104C5000C30ED11C47E0E416F104F9F61091850269
:104C6000123009F054C00E946A1248E568E170E011
:104C700084E190E00E94451285E290E090939402D6
:104C8000809393028CE190E090939602809395023A
:104C900068E672E180E397E00E94FD11812F0E9497
:104CA0007C12113009F04DC088E00E94A8108823C2
:104CB00011F40C94441C109389025BCD82508093B4
:104CC0002D078CE3809378028091730281115ACE74
:104CD00060E170E080E090E00E94E9126C597F4F43
:104CE00070937F0260937E0288E290E0909381024D
:104CF000809380021092820280E18093280742CE46
:104D000084E790E090937F0280937E027ECE113004
:104D100029F60E946A1248E568E170E084E190E0BB
:104D20000E94451288E290E090939402809393024F
:104D30008CE190E090939602809395026FE572E18A
:104D4000A9CF123011F00C94441C88E00E94A810E6
:104D500081111092990284E00E94A810882311F416
:104D60000C94441C0C94811C54E09512F0C1809169
:104D70008602909187020196909387028093860223
:104D800088E00E94A810811105C084E00E94A8104C
:104D9000882359F080918802833038F48F5F8093A4
:104DA0008802109287021092860280918802909168
:104DB0008902911175C0811124C062E084E491E1FF
:104DC0000E94731540E868E370E090E080E00E9484
:104DD0007E0B00E120E149EA52E168E270E084E103
:104DE00090E00E94B50A20E144E251E168E270E0FF
:104DF0008EE490E00E94B50A68E38DE191E10C94A5
:104E00009B1C813021F562E08BE091E10E947315DB
:104E100040E868E370E090E080E00E947E0B00E1F3
:104E200020E149E852E168E270E084E190E00E940C
:104E3000B50A20E144E251E168E270E080E590E0EB
:104E40000E94B50A68E384E091E10C949B1C8230D7
:104E500021F562E084EF90E10E94731540E868E379
:104E600070E090E080E00E947E0B00E120E149EAE2
:104E700052E168E270E08CE190E00E94B50A20E126
:104E800044E251E164E270E080E690E00E94B50AFD
:104E900068E38DEE90E10C949B1C83E00C94831CE2
:104EA000811124C062E085EE90E10E94731540E814
:104EB00068E370E090E080E00E947E0B00E120E17A
:104EC00044E251E168E270E08EE190E00E94B50AB0
:104ED00020E149EA52E168E270E08AE490E00E9451
:104EE000B50A68E38EED90E10C949B1C813021F5AE
:104EF00062E08DEC90E10E94731540E868E370E099
:104F000090E080E00E947E0B00E120E144E251E16C
:104F100068E270E084E290E00E94B50A20E149EA8C
:104F200052E168E270E086E490E00E94B50A68E32E
:104F300086EC90E10C949B1C823009F05BC062E02F
:104F400086EB90E10E94731540E868E370E090E022
:104F500080E00E947E0B00E120E144E251E168E242
:104F600070E082E390E00E94B50A20E149EA52E154
:104F700068E270E082E490E00E94B50A80918602C7
:104F80009091870253E0969587955A95E1F7B20183
:104F90000E94B42A182F44E153E1882311F042E71C
:104FA00052E108E028E06AE170E088E290E00E94C7
:104FB000B50A44E153E1113011F042E752E108E053
:104FC00028E06AE170E08EE490E00E94B50A44E1D6
:104FD00053E1123011F042E752E108E028E066E1C7
:104FE00070E08BE390E00E94B50A68E38FEA90E1FD
:104FF0000C949B1C833009F0AAC8C0908602D09004
:105000008702C601B2010E94B42A6F77772740E871
:10501000E42EF12CE61AF70A10E000E0C80160E384
:1050200070E00E94C82ABC016C5F7F4FC8018E0DE2
:105030009F1D41E08F7799270E94C110055F1F4F88
:105040000438110559F740E86AE370E090E080E029
:105050000E947E0B5601B694A79484E290E08A19D0
:105060009B09893D6FEF96070CF444C06EE370E036
:105070006A197B097601E3E0EE22FF24F2E2EF0EEB
:10508000F11CE80EF91E00E410E09B0144E450E03E
:105090008CE390E00E94BB0B20E3822E912C8A18B7
:1050A0009B0866E270E06A197B09740108E410E06D
:1050B000940148E350E080E490E00E94BB0B41E1A2
:1050C000B40188E390E00E94451206E310E00A195B
:1050D0001B09B80180E490E00E94DF1041E0B801B4
:1050E0008EE390E00E94C11041E0B80182E490E0BC
:1050F0000E94C1107601F694E794F694E7942FE0AD
:10510000E222FF243EE1E30EF11C9AE1A92EB12C2C
:1051100008E028E044E153E1B701C5010E94B50A67
:1051200046E1A40EB11C52E0E51AF10862E7A616AA
:10513000B10471F762E086EA90E10E9473157DED9B
:10514000C716D10410F00C94A7200C94441C83E0E3
:1051500098120C94441C66E18DE990E10E9473154D
:1051600066E28DE890E10E94731588E00E94A81025
:1051700081110C94A72084E00C94A220DD2011F46E
:105180000C947B1F933010F00C94E51F1092B7061F
:1051900080932F0710922D070C94401E772011F456
:1051A0000C94A81F923090F391500CE30C94A81F1C
:1051B000662011F40C94DA1FF1E07F120C94E81FC2
:1051C0008F5F4F5A5E4F177EFA0110830C94DA1FDF
:1051D000A9014A5051094531510508F02EC94091A5
:1051E000600241112AC9A13009F404E040912D0761
:1051F000041708F477C910922D0782E080936F029C
:10520000D12CC12CF12CE12C95E1A92EB12C0091CF
:105210006D0210916E02C601B5010E94C82A9C0160
:10522000245F3F4FC801B2010E94B42AC701861B08
:10523000970B41E0B9018F7799270E94C1109DE13A
:10524000E90EF11CE7E0CE0ED11CF5E0EF16F1E01F
:10525000FF06E9F640E868E370E090E080E00E9435
:105260007E0B0F77112780E8E82EF12CE01AF10A67
:1052700010E041E06CE370E0C7018F7799270E944E
:10528000C1101F5F23E1E20EF11C183091F78091ED
:105290006C02882309F448C947EC51E1813009F0D8
:1052A00045C947EE51E16CE170E042C940916602A8
:1052B00050916702485051094831510508F0D0C853
:1052C00040912D07453008F496CF445040932D0768
:1052D0004CE340936002C4C88091610290916202E5
:1052E00045970C9708F0D2C81092650280912D075F
:1052F000823008F480CF815080932D078EE1809317
:105300006002C4C88F929F92AF92BF92CF92DF92F9
:10531000EF92FF92CF93DF93EC01688179818A81CC
:105320009B81611571058105910521F464E279ED98
:105330008BE597E02DE133EF41E050E00E94452AF4
:1053400049015A019B01AC01A7EAB1E40E94642A19
:105350006B017C01ACEEB4EFA50194010E94722AAE
:10536000C60ED71EE81EF91EF7FE06C081E0C81A59
:10537000D108E10880E8F80AC882D982EA82FB8273
:10538000C701B6019F77DF91CF91FF90EF90DF903B
:10539000CF90BF90AF909F908F9008958F929F92E3
:1053A000AF92BF92CF92DF92EF92FF9260910F0186
:1053B0007091100180911101909112016115710598
:1053C0008105910521F464E279ED8BE597E02DE10B
:1053D00033EF41E050E00E94452A49015A019B0108
:1053E000AC01A7EAB1E40E94642A6B017C01ACEE37
:1053F000B4EFA50194010E94722AC60ED71EE81EC2
:10540000F91EF7FE06C081E0C81AD108E10880E85D
:10541000F80AC0920F01D0921001E0921101F092AF
:105420001201C701B6019F77FF90EF90DF90CF90F8
:10543000BF90AF909F908F90089560930F017093ED
:10544000100180931101909312010895FC010590C1
:105450000020E9F7809590958E0F9F1F0895F99988
:10546000FECF92BD81BDF89A992780B50895262F69
:10547000F999FECF1FBA92BD81BD20BD0FB6F89439
:10548000FA9AF99A0FBE01960895052E97FB1EF41D
:1054900000940E945C2A57FD07D00E94772A07FCDF
:1054A00003D04EF40C945C2A50954095309521958C
:1054B0003F4F4F4F5F4F0895909580957095619540
:1054C0007F4F8F4F9F4F08950E94992AA59F900D5F
:1054D000B49F900DA49F800D911D11240895B7FFD6
:1054E0000C94642A0E94642A821B930B0895A1E203
:1054F0001A2EAA1BBB1BFD010DC0AA1FBB1FEE1F4E
:10550000FF1FA217B307E407F50720F0A21BB30B98
:10551000E40BF50B661F771F881F991F1A9469F714
:1055200060957095809590959B01AC01BD01CF0170
:105530000895A29FB001B39FC001A39F700D811D6C
:105540001124911DB29F700D811D1124911D08958C
:10555000991B79E004C0991F961708F0961B881FC5
:105560007A95C9F780950895AA1BBB1B51E107C026
:10557000AA1FBB1FA617B70710F0A61BB70B881FE3
:10558000991F5A95A9F780959095BC01CD01089572
:1055900097FB072E16F4009407D077FD09D00E94E0
:1055A000B42A07FC05D03EF4909581959F4F08954D
:1055B000709561957F4F0895EE0FFF1F0590F49150
:0855C000E02D0994F894FFCFDF
:1055C800100301FFFFFFFF00E100000000000001E1
:1055D80000000000C18081000000000000009C0D58
:1055E800340FBD0DB20D030EC10DDF0D000000001C
:0855F8009A11AF0E891288120E
:00000001FF
