:100000000C9480060C94A8060C94A8060C94A806E0
:100010000C94A8060C94A8060C94A8060C94A806A8
:100020000C94A8060C94A8060C94100E0C947F0E49
:100030000C94A8060C94A8060C94A8060C94A80688
:100040000C94A8060C94A8060C94A8060C94A80678
:100050000C94A8060C94A8060C94A8060C94B11055
:100060000C94A8060C94A8060C94A8060C94A80658
:100070000C94A8060C94A8060C94A8060C94A80648
:100080000C94FB100C94A8060C94A8060C94A806DB
:100090000C94A8060C94A8060C94A8060C94A80628
:1000A0000C94A8060C94A8060C94A8060000000066
:1000B000003E5B4F5B3E3E6B4F6B3E1C3E7C3E1CEE
:1000C000183C7E3C181C577D571C1C5E7F5E1C0034
:1000D000183C1800FFE7C3E7FF0018241800FFE7EB
:1000E000DBE7FF30483A060E2629792926407F05AE
:1000F0000507407F05253F5A3CE73C5A7F3E1C1CC4
:1001000008081C1C3E7F14227F22145F5F005F5F83
:1001100006097F017F006689956A6060606060946F
:10012000A2FFA29408047E040810207E2010080874
:100130002A1C08081C2A08081E101010100C1E0C7F
:100140001E0C30383E3830060E3E0E060000000011
:100150000000005F00000007000700147F147F14F8
:10016000242A7F2A1223130864623649562050003D
:1001700008070300001C2241000041221C002A1C29
:100180007F1C2A08083E0808008070300008080814
:100190000808000060600020100804023E51494534
:1001A0003E00427F400072494949462141494D3352
:1001B0001814127F1027454545393C4A49493141B9
:1001C000211109073649494936464949291E000087
:1001D00014000000403400000008142241141414DC
:1001E0001414004122140802015909063E415D59C8
:1001F0004E7C1211127C7F494949363E41414122D1
:100200007F4141413E7F494949417F090909013EFA
:10021000414151737F0808087F00417F4100204021
:10022000413F017F081422417F404040407F021C33
:10023000027F7F0408107F3E4141413E7F0909094A
:10024000063E4151215E7F09192946264949493216
:1002500003017F01033F4040403F1F2040201F3FDC
:100260004038403F63140814630304780403615961
:10027000494D43007F4141410204081020004141A3
:10028000417F04020102044040404040000307084F
:100290000020545478407F2844443838444444284B
:1002A000384444287F385454541800087E090218F2
:1002B000A4A49C787F0804047800447D400020407A
:1002C000403D007F1028440000417F40007C0478BE
:1002D00004787C080404783844444438FC18242406
:1002E0001818242418FC7C08040408485454542486
:1002F00004043F44243C4040207C1C2040201C3C03
:100300004030403C44281028444C9090907C4464F9
:10031000544C44000836410000007700000041368C
:10032000080002010204023C2623263C1EA1A16112
:10033000123A4040207A3854545559215555794144
:100340002154547841215554784020545579400C1B
:100350001E527212395555555939545454593955FC
:100360005454580000457C410002457D420001453F
:100370007C40F0292429F0F0282528F07C545545AC
:10038000002054547C547C0A097F4932494949323F
:100390003248484832324A4848303A4141217A3A54
:1003A00042402078009DA0A07D39444444393D401E
:1003B00040403D3C24FF2424487E4943662B2FFCCB
:1003C0002F2BFF0929F620C0887E09032054547979
:1003D000410000447D413048484A32384040227A4A
:1003E000007A0A0A727D0D19317D2629292F2826C7
:1003F0002929292630484D402038080808080808CF
:100400000808382F10C8ACBA2F102834FA00007B27
:10041000000008142A142222142A1408950022002D
:1004200095AA005500AAAA55AA55AA000000FF00E7
:10043000101010FF00141414FF001010FF00FF1024
:1004400010F010F0141414FC001414F700FF000056
:10045000FF00FF1414F404FC141417101F10101FD5
:10046000101F1414141F00101010F0000000001FC3
:10047000101010101F10101010F010000000FF10CE
:100480001010101010101010FF10000000FF1400CA
:1004900000FF00FF00001F10170000FC04F41414FC
:1004A0001710171414F404F40000FF00F7141414C8
:1004B00014141414F700F7141414171410101F1048
:1004C0001F141414F4141010F010F000001F101F6B
:1004D0000000001F14000000FC140000F010F010D9
:1004E00010FF10FF141414FF141010101F00000050
:1004F00000F010FFFFFFFFFFF0F0F0F0F0FFFFFF54
:100500000000000000FFFF0F0F0F0F0F38444438AA
:10051000447C2A2A3E147E02020606027E027E02E5
:1005200063554941633844443C04407E201E200604
:10053000027E020299A5E7A5991C2A492A1C4C7241
:1005400001724C304A4D4D303048784830BC625AC8
:10055000463D3E494949007E0101017E2A2A2A2A58
:100560002A44445F444440514A444040444A514034
:100570000000FF0103E080FF000008086B6B0836F5
:1005800012362436060F090F060000181800000066
:100590001010003040FF0101001F01011E00191D55
:1005A0001712003C3C3C3C0000000000F0F89C8E20
:1005B0008783878E9CF8F00000FEFF03030303038C
:1005C000070EFCF80000FEFF0303030303070EFC05
:1005D000F80000FFFF00000000000000FFFF000027
:1005E000FEFF8383838383C7EE7C380000F8FC0E14
:1005F00007030303070EFCF800003F7FE0C0808084
:10060000C0E07F3FFFFF01010101010101FFFF0089
:1006100000FFFF0C0C0C0C1C3E77E3C100007FFFB9
:10062000C0C0C0C0C0E0703F1F00001F3F70E0C0EE
:10063000C0C0E0703F1F00007FFFC1C1C1C1C1E366
:10064000773E1C00001F3F70E0C0C0C0E0703F1F3D
:10065000000000000001FFFF01000000D5F08D1434
:10066000A1C881CFD9F1AF20009302C80000000AD1
:10067000009302C80000000A009302C80000000AAC
:10068000009302C80000000A009302C80000000A9C
:10069000009302C80000000A009302C80000000A8C
:1006A000009302C80000000A009302C80000000A7C
:1006B000009302C80000000A009302C80000000A6C
:1006C000009302C80000000A009302C80000000A5C
:1006D000009302C80000000A009302C80000000A4C
:1006E000009302C80000000A009302C80000000A3C
:1006F000009302C80000000A009302C80000000A2C
:10070000009302C80000000A009302C80000000A1B
:10071000009302C80000000A009302C80000000A0B
:10072000009302C80000000A009302C80000000AFB
:10073000000B02C80000000A009302C80000000A73
:10074000000B02C80000000A009302C80000000A63
:10075000000B02C80000000A009302C80000000A53
:10076000000B02C80000000A009302C80000000A43
:10077000000B02C80000000A009302C80000000A33
:10078000000B02C80000000A009302C80000000A23
:10079000000B02C80000000A009302C80000000A13
:1007A000000B02C80000000A009302C80000000A03
:1007B000000B02C80000000A009302C80000000AF3
:1007C000000B02C80000000A009302C80000000AE3
:1007D000000B02C80000000A009302C80000000AD3
:1007E000000B02C80000000A009302C80000000AC3
:1007F000004B02C80000000A009302C80000000A73
:10080000004B02C80000000A009302C80000000A62
:10081000004B02C80000000A009302C80000000A52
:10082000004B02C80000000A009302C80000000A42
:10083000004B02C80000000A009302C80000000A32
:10084000004B02C80000000A009302C80000000A22
:10085000000B02C80000000A009302C80000000A52
:10086000004B02C80000000A009302C80000000A02
:10087000004B02C80000000A009302C80000000AF2
:10088000004B02C80000000A009302C80000000AE2
:10089000004B02C80000000A009302C80000000AD2
:1008A000004B02C80000000A00B801B00400000AB2
:1008B00000EE01B00400000A00B801900100000A37
:1008C00000EE01900100000A000B02900100000AF6
:1008D00000EE01900100000A00B801900100000A3A
:1008E00000EE01900100000A000B02B00400000AB3
:1008F00000EE01600900000A00B801200300000AB0
:10090000009302900100000A000B02B00400000AEC
:1009100000EE01600900000A00B801900100000A21
:10092000009302900100000A000B02900100000AEF
:1009300000EE01900100000A00B801900100000AD9
:1009400000EE01900100000A000B02B00400000A52
:1009500000EE01600900000A00B801900100000AE1
:10096000009302900100000A000B02900100000AAF
:1009700000EE01900100000A00B801900100000A99
:1009800000EE01900100000A000B02B00400000A12
:10099000004B02B00400000A009302B00400000AF9
:1009A00000B801C80000000A00EE01C80000000AFB
:1009B000000B02C80000000A00EE01C80000000A97
:1009C00000B801C80000000A000B02C80000000ABD
:1009D00000EE01C80000000A00B801C80000000ACB
:1009E000008801C80000000A00B801C80000000A21
:1009F00000EE01C80000000A008801C80000000ADB
:100A000000EE01C80000000A00B801C80000000A9A
:100A1000008801C80000000A00B801C80000000AF0
:100A200000EE01C80000000A008801C80000000AAA
:100A300000B801C80000000A000B02C80000000A4C
:100A400000EE01C80000000A004B02C80000000AC6
:100A5000000B02C80000000A00B801C80000000A2C
:100A600000EE01C80000000A008801C80000000A6A
:100A700000B801C80000000A000B02C80000000A0C
:100A800000EE01C80000000A004B02C80000000A86
:100A9000000B02C80000000A004B02C80000000A58
:100AA000000B02C80000000A00EE01C80000000AA6
:100AB00000B801C80000000A000B02C80000000ACC
:100AC00000EE01C80000000A00B801C80000000ADA
:100AD000008801C80000000A00B801C80000000A30
:100AE00000EE01C80000000A008801C80000000AEA
:100AF00000EE01C80000000A00B801C80000000AAA
:100B0000008801C80000000A009302C80000000A23
:100B100000EE01C80000000A008801C80000000AB9
:100B20000001800000000000FC86B73706FC0000D2
:100B30000000000010985C5E203D2625253E589060
:100B40008000000098DAC060ECC4E0F0B6F6E04047
:100B5000042000000411030B2D0F064F1B0F073557
:100B600033000000408082F498A88888A898F48216
:100B700080400000120A4A3F1F1D1A1A1D1F3F4ADB
:100B80000A1200594F552057494E210047414D4503
:100B9000204F564552004C3A002F00533A000000B7
:100BA00000E03010501818501030E0000000000035
:100BB000C0F9EABA3F2F2F3FBAEAF9C0000000009F
:100BC00000788C84D4C7C7D4848C780000000000DF
:100BD000000E029EFFF7F7FF9E020E0000000000CD
:100BE00000788C84D4C7C7D4848C780000000000BF
:100BF0000C86C2FE3F17173FFEC2860C0000594FFD
:100C0000552057494E210047414D45204F564552EA
:100C1000000C1E3E7C22120C000C12224422120CEC
:100C2000000C1E3E7C3E1E0C002F32353500533A20
:100C300000007EFFC3C3FF7E00000080FFFF860C24
:100C400008000000FFFF000000080C86FFFF800086
:100C5000004BB7032BD7030323D70B0353AF035327
:100C6000AF020D000A05000008050200040B000495
:100C70000BFFFFFFFFFFFFFFFF3EBEAAF6FAA6BE77
:100C80003E0F0F0F0F0F0F0F0F080B000202020095
:100C90000009040000010202000005240010010503
:100CA0002401010104240206052406000107058130
:100CB0000310004009040100020A000000070502B9
:100CC00002400000070583024000000403090412EB
:100CD000010002EF020140412336800001010203BE
:100CE0000141726475696E6F204C4C43004172641F
:100CF00075696E6F204C656F6E6172646F008F1145
:100D000011241FBECFEFDAE0DEBFCDBF11E0A0E0BF
:100D1000B1E0E4EAF6E302C005900D92A833B10712
:100D2000D9F726E0A8E3B1E001C01D92AF3FB207BA
:100D3000E1F716E0C0E8D6E004C02197FE010E946A
:100D40004A1BCF37D107C9F70E94CA110C94501B18
:100D50000C9400008091380108952F923F924F9299
:100D60005F926F927F928F929F92AF92BF92CF923B
:100D7000DF92EF92FF920F931F93CF93DF9330E0B8
:100D8000F901E80FF91F1E161F060CF098C08038F5
:100D900091050CF094C0FB01E00FF11D1E161F061B
:100DA0000CF08DC0603471050CF089C0DB0177FF59
:100DB00004C0AA27BB27A61BB70BA770BB27EB0154
:100DC00077FD2796E3E0D595C795EA95E1F777FF9C
:100DD00007C0219768E070E0FB01EA1BFB0BDF0115
:100DE000069506950695602E712C7A01AE015695F2
:100DF000542F442757954795480F591F4D565D4F1F
:100E0000BE01E8E0F0E02F014A1A5B0A6F3FFFEFF6
:100E10007F070CF444C06C0110E000E04A01F0E8E8
:100E20008F0E911CD7FC2EC06F3F760709F45AC075
:100E3000F701E00FF11FE4915A01A00EB11EF0E09E
:100E40001F010A2E01C0220C0A94EAF7F501308036
:100E5000232820821097B1F06730710599F0F701CF
:100E6000E00FF11FE4915401A00EB11EF0E01F014C
:100E7000042C02C0359427940A94E2F7F5013080DF
:100E8000232820820F5F1F4FFFEFCF1ADF0A0217C0
:100E900013072CF4E0E8CE16D10409F0C3CF6F5F3E
:100EA0007F4FE20EF31E40585F4FFB01EC1BFD0B22
:100EB000E615F70524F46830710509F0A7CFDF9136
:100EC000CF911F910F91FF90EF90DF90CF90BF9047
:100ED000AF909F908F907F906F905F904F903F90DA
:100EE0002F900895109709F0BACFCCCF8CE890E0FE
:100EF00090939202809391021092900210928F022E
:100F000010928E0210928D0210928C0210928B021F
:100F100010928A021092890210928802109287021F
:100F20001092860210928502E3EFF6E084E180835E
:100F300088E290E092838183138214821682178262
:100F400086E085830895E3E9F2E0A0E0B8E0008060
:100F50000EBC8111012C1197A0FDFDCF0192B9F7B4
:100F60000DB40895FC0180916E02882311F13FB702
:100F7000F89482E08093E9002091F200822F90E0C3
:100F80001816190614F481E090E0882339F02898A7
:100F900044E640936D024091F1004083222339F0F2
:100FA0002091F200211103C02BE62093E8003FBFFF
:100FB00008958FEF9FEF08952FB7F89483E0809303
:100FC000E9009091E800892F807295FF04C090910C
:100FD000F20080E4891B2FBF089580916502811182
:100FE0000DC082E08093610284E0809362021092DF
:100FF00064021092630281E08093650281E692E0D0
:101000000895CF93DF931F92CDB7DEB76983DC01DC
:10101000ED91FC910280F381E02D41E050E0BE01B2
:101020006F5F7F4F09950F90DF91CF91089583E017
:101030008093E9008091F200882319F08AE380937D
:10104000E80008950E94DC0790E00895CF93DF93B5
:101050001F92CDB7DEB7FC018485958597FD08C04A
:101060002FEF3FEF358724870F90DF91CF910895C1
:10107000CE0101960E94B207019719F4898190E090
:10108000F3CF8FEF9FEFF0CF0F931F93CF93DF93AB
:101090001F92CDB7DEB78C01FC018485958597FF43
:1010A0000BC0CE0101960E94B207019771F48981AD
:1010B00090E0F80195878487F801848595850F90E5
:1010C000DF91CF911F910F9108958FEF9FEFF1CF97
:1010D000FC018485958597FD0BC09FB7F89482E04D
:1010E0008093E9008091F2009FBF90E001960895FF
:1010F0009FB7F89482E08093E9008091F2009FBF4F
:1011000090E0089540915B0250915C022091590259
:1011100030915A0242175307B4F49091E800957049
:10112000E1F39091E80092FD19C08093F100809165
:101130005B0290915C0201968F739927892B19F4B9
:101140008EEF8093E80080915B0290915C020196A3
:1011500090935C0280935B0281E0089580E00895A3
:10116000DF92EF92FF920F931F93CF93DF93D82ECE
:101170008A01EB017B01E40EF51ECE15DF0559F067
:10118000D7FE12C0FE0184910E948208219681112F
:10119000F4CF0FEF1FEFC801DF91CF911F910F9197
:1011A000FF90EF90DF9008958881EECF0F931F930B
:1011B000CF93DF931F92CDB7DEB782E0898342E4FD
:1011C00050E069E87CE080E80E94B0080E94ED07EA
:1011D000DC0112960D911C910115110589F0D801C1
:1011E000ED91FC910280F381E02DBE016F5F7F4F96
:1011F000C801099597FD04C0F80100851185ECCF61
:1012000089810F90DF91CF911F910F9108956150C7
:1012100030F02091F100FC0120830196F8CF28984E
:1012200084E680936D020895AF92BF92CF92DF92D1
:10123000EF92FF920F931F93CF93DF936C017B018B
:101240008B01040F151FEB015E01AE18BF08C0171C
:10125000D10759F06991D601ED91FC910190F0818F
:10126000E02DC6010995892B79F7C501DF91CF9152
:101270001F910F91FF90EF90DF90CF90BF90AF90B4
:1012800008953FB7F8948091430190914401A09153
:101290004501B091460126B5A89B05C02F3F19F026
:1012A0000196A11DB11D3FBFBA2FA92F982F8827E6
:1012B000BC01CD01620F711D811D911D42E0660FC1
:1012C000771F881F991F4A95D1F708958F929F9293
:1012D000AF92BF92CF92DF92EF92FF926B017C01AF
:1012E0000E9441094B015C01C114D104E104F104E5
:1012F000B9F00E944109681979098A099B09683E79
:1013000073408105910580F321E0C21AD108E108FC
:10131000F10888EE880E83E0981EA11CB11CE4CF72
:10132000FF90EF90DF90CF90BF90AF909F908F9005
:1013300008958F929F92AF92BF92CF92DF92EF92D9
:10134000FF920F931F93CF93DF936C017B018A0170
:1013500080910D01882309F45CC080916E0288237E
:1013600009F457C08091600280FF05C08091E000C1
:1013700082608093E000E801B12C8AEFA82E93E010
:10138000892E2AE3922E209711F4BB20D9F10E94D6
:10139000DC0781110AC0AA94AA20D9F161E070E0AB
:1013A00080E090E00E946609EECF8C171D0611F0D8
:1013B0000CF08C2F9FB7F8948092E9002091E80000
:1013C00025FD02C09FBFDFCF282F30E0C21BD30B0B
:1013D000F701815020F041914093F100FACFE20EE5
:1013E000F31EBB2021F09092E800B12CEBCF80914E
:1013F000E80085FDE7CF9092E800BB24B3942097E6
:1014000009F3F3CF5D9884E680935F02101611060E
:101410003CF081E090E0F6019383828310E000E0ED
:10142000C801DF91CF911F910F91FF90EF90DF9056
:10143000CF90BF90AF909F908F90089520914B01D7
:10144000E0914901F0914A01CF01029690934A013F
:1014500080934901222319F0859194910895808108
:1014600091810895CF92DF92EF92FF92CF93DF9315
:101470000E941E0A811520E8920791F48091710064
:101480008D7F80937100109291004698479810923A
:101490003B01DF91CF91FF90EF90DF90CF900895C7
:1014A00021E020933B01813020E8920751F48091A4
:1014B00047019091480190934A01809349010E940D
:1014C0001E0A97FD05C020913A01222309F454C059
:1014D00020913901211150C021E020933C01EC0101
:1014E000DF77209709F04BC081E080933D0146985B
:1014F0003FE9C32E3FE0D32EE12CF12CCAEFD0E020
:10150000E091F106F091F2060995811103C081E0A6
:1015100080933D0180913C01882329F080913D0119
:10152000882309F43FC047980E941E0A0097F1F1F2
:101530009C01DE010E94071BDC01CB0129E0B5956F
:10154000A795979587952A95D1F7109290002AE054
:1015500020939100D0929900C092980080933E0110
:1015600090933F01A0934001B0934101809171009D
:101570008260809371008DCF10923C01B0CF9E01AC
:1015800050E040E060E472E48FE090E00E94B31A23
:1015900069017A0181E0C81AD108E108F1081092C6
:1015A0003D01AECF4699BFCF479ABECF8FEF9FEF99
:1015B000DC01CBCF2D9A0895BC0190E080E00C9423
:1015C00066098FB18095807F669B88601C9B8460D4
:1015D00008955C988EBD00000DB407FEFDCF5C9AA7
:1015E000089590915402982329F4909155029823DC
:1015F00081E009F480E00895CF93C82F0E94E10AAA
:10160000982F9C2381E09C1380E0CF91089580E087
:101610000C94A30780389105B8F460347105A0F4E8
:1016200020E191E061FD94E060FD990F62FD9295EB
:10163000687F269FD0011124A80FAD56BD4F8C9115
:1016400040FF03C0892B8C93089590958923FBCF8D
:10165000CF93DF93E7E2F4E099E5915059F4E7EA9C
:10166000F4E099E5915061F08191DF01119780627A
:101670008C93F8CF8191DF01119781608C93EDCF2E
:10168000C8E1D0E041E0BE0184E190E00E940A0B95
:101690002196C632D105B1F7C8E1D0E041E0BE01E4
:1016A0008BE690E00E940A0B2196C632D105B1F775
:1016B000DF91CF9108950F931F93CF93DF93C4E1F0
:1016C000D0E008E110E040E0B801CE010E940A0B32
:1016D0000F5F1F4F06321105B1F72196CC36D105A9
:1016E00081F7DF91CF911F910F9108958F929F9273
:1016F000AF92BF92CF92DF92EF92FF920F931F9320
:10170000CF93DF936D3089F0C0905202D090530296
:101710006A30D1F4109251021092500288E0C80E43
:10172000D11CD0925302C092520281E090E0DF912E
:10173000CF911F910F91FF90EF90DF90CF90BF90CE
:10174000AF909F908F900895009150021091510298
:10175000E5E06E9FE0011124C455DF4F4801F12CF4
:10176000F5E0E12CFF1629F0CE010196FE01E49090
:10177000EC01B12CA12C4E2D4170B6016A0D7B1DE0
:10178000C4010E940A0BE694FFEFAF1ABF0A88E07B
:10179000A816B10481F7F394EFEF8E1A9E0AF6E0D3
:1017A000FF12DECF0A5F1F4F1093510200935002C9
:1017B000BCCF0F931F93CF93DF938C01D0E0C0E099
:1017C000F801EC0FFD1F6491662341F08BEF96E06A
:1017D0000E94760B892B11F02196F2CFCE01DF917A
:1017E000CF911F910F910895089590E080E00895A2
:1017F0008F929F92AF92BF920F931F93CF93DF93DD
:10180000CDB7DEB7A1970FB6F894DEBF0FBECDBF40
:1018100019A2423008F44AE08E010F5D1F4F842E5A
:10182000912CB12CA12CA50194010E94E51AE62F60
:10183000B901CA01EA3044F5E05DD801EE938D01AB
:10184000232B242B252B79F790E080E0109769F06B
:10185000FD0101900020E9F73197AF014A1B5B0BB6
:10186000BD018BEF96E00E941409A1960FB6F89483
:10187000DEBF0FBECDBFDF91CF911F910F91BF9003
:10188000AF909F908F900895E95CD7CFEF92FF9231
:101890001F93CF93DF932091830230918402409174
:1018A0007C02C90160E870E00E94361BEC01DD2774
:1018B000CE0180539E4F7C01C05BDE4F4423D1F0AC
:1018C0008FEFF70180831882415040937C02809112
:1018D0007B02882319F0815080937B022F5F3F4F5A
:1018E0003093840220938302DF91CF911F91FF9068
:1018F000EF9008958091810281113CC00E94451AA9
:1019000020918302309184022A3031050CF0C7C047
:1019100080E3809382021EE0109380021093810284
:1019200010927F028FEF80937E0280937D028091E0
:101930008302909184020A97ECF01730D8F00E944D
:10194000451A24E630E040E050E00E94B31A6730C8
:1019500071050CF0CBC00E94451A412F4450550B25
:101960009A01032E000C440B550B0E94B31A6E5FB4
:1019700060937E0280918202F701808380917F02D2
:1019800030917E0291E0831390E020917D028213DA
:10199000CBC092608F3F09F0D2C09883911146C0AE
:1019A00090917B029111CDC03F3F49F0831708F41D
:1019B000B1C0F82FF31B3F2F41E0333008F040E077
:1019C0002F3F71F0682F70E030E0FB013196E21795
:1019D000F30734F02E5F3F4F91E0261737070CF4E2
:1019E00090E021E0823048F0609180026150770BF6
:1019F00021E0861717060CF420E041111EC091115A
:101A00001CC021111AC00E94451A24E630E040E0B3
:101A100050E00E94B31A6D3271050CF07DC08881D0
:101A2000877E8860888383E080937B0280917B023D
:101A3000882319F0815080937B0280917F028F5F11
:101A400080937F0220918102215020938102809116
:101A50008302909184020196909384028093830282
:101A6000211142CF41970CF43FCF0E94451A24E642
:101A700030E040E050E00E94B31A6F3071058105FC
:101A800091050CF031CF0E94451A22E030E040E091
:101A900050E00E94B31A6E5F60937C0225CF25E070
:101AA00030E040E050E00E94B31A18E0160F0E94A8
:101AB000451A23E030E040E050E00E94B31A615044
:101AC000F8E06F02C001112460918202680F792F43
:101AD000711D6933710514F068E370E068327105B7
:101AE00014F468E270E06093820216CF6F307105E3
:101AF0000CF040CF0E94451AE12FE550FF0B9F01EB
:101B0000032E000C440B550B0E94B31A6E5F6093BA
:101B10007D0230CF381B50CF623371050CF086CF79
:101B20008881877E80617ECF2F3F09F436CF422F98
:101B300050E04F5F5F4F8417150609F02ECF946079
:101B40002CCF892F77CF2FB7F89460916F027091C7
:101B5000700280917102909172022FBF6115710520
:101B60008105910511F00E94941A1092840210923E
:101B7000830280E38093820210928102109280029D
:101B800010927F028FEF80937E0280937D021092ED
:101B90007C0210927B0280918302909184028038B3
:101BA00091051CF40E94460CF6CF80E190E09093E2
:101BB0007A02809379021092780210927702109242
:101BC000760282E080937502109274021092730282
:101BD0008EE18093F30680E290E09093F506809387
:101BE000F4061092F6061092F7061092FA0610927A
:101BF000F90686E08093F80608950C949D1A82E019
:101C000090E00E94FD0D882331F03E9A3F9A81E0DA
:101C1000809338010895109238013E983F980895B6
:101C20001F920F920FB60F9211248F939F93809162
:101C3000E1009091E100937F9093E10083FF0FC05A
:101C40001092E90091E09093EB001092EC0092E387
:101C50009093ED0010926E0298E09093F00082FF56
:101C600022C093E09093E9009091F200992319F03B
:101C70009AE39093E80090915F02992341F090914C
:101C80005F02915090935F02911101C05D9A909113
:101C90006D02992341F090916D02915090936D02E5
:101CA000911101C0289A84FF18C08091E2008E7EB5
:101CB00081608093E2008091E1008F7E8093E1005B
:101CC000809160028E7E8061809360029F918F91EF
:101CD0000F900FBE0F901F90189580FFF7CF809147
:101CE000E2008E7E80618093E2008091E1008E7E32
:101CF0008093E100809160028E7E8160E5CF1F922B
:101D00000F920FB60F921124CF92DF92EF92FF92B3
:101D10000F931F932F933F934F935F936F937F93F3
:101D20008F939F93AF93BF93EF93FF93CF93DF93E3
:101D3000CDB7DEB76C97DEBFCDBF1092E9008091C2
:101D4000E80083FF25C068E0CE0145960E940709A0
:101D500082EF8093E8008D8987FF39C09091E80079
:101D600090FFFCCF982F907609F034C19E894F895F
:101D7000588D2F89F88C911131C0803861F5809190
:101D80005E028093F1001092F1008EEF8093E800E4
:101D90006C960FB6F894DEBF0FBECDBFDF91CF912A
:101DA000FF91EF91BF91AF919F918F917F916F9133
:101DB0005F914F913F912F911F910F91FF90EF9065
:101DC000DF90CF900F900FBE0F901F9018959EEF51
:101DD0009093E800C7CF1092F100D5CF913059F41D
:101DE0008111D3CF4130510581F680915E028D7F04
:101DF00080935E02CACF933049F48111C6CF41303F
:101E0000510519F680915E028260F2CF953041F45F
:101E10008091E80080FFFCCF20682093E300B5CFDD
:101E2000963009F0A9C00B8D1C8D22E01092E900BC
:101E300010925C0210925B02F2122EC010925A02B3
:101E4000109259020E94D6081F8299E09983FA8263
:101E500091E09E8390EA98879AEF998720915B02A0
:101E600030915C02275F3F4F3C832B838D83109220
:101E7000E90010925C0210925B0210935A020093E8
:101E8000590249E050E0BE016F5F7F4F80E00E9441
:101E9000B0080E94D60879CF10935A0200935902D5
:101EA0000E94ED07DC0112960D911C9101151105A0
:101EB00009F451C1D801ED91FC910480F581E02D28
:101EC000BE016B5E7F4FC8010995009709F03EC1C6
:101ED000F80100851185EACFF3E0FF120EC08F896B
:101EE000882309F440C0823061F440E860E18DEE5F
:101EF0009CE00E945C11811148CF81E28093EB004D
:101F000047CF813029F440E86BE081EE9CE0F1CFCF
:101F1000833099F70E94ED07DC011296ED90FC905A
:101F20008E010F5F1F4F6801E114F10479F0D701B2
:101F3000ED91FC910680F781E02DB801C70109956C
:101F4000080F111DF701E084F184EECFD8011C9237
:101F5000F60101900020E9F73197BF016C197D0966
:101F600040E0C601C6CF6BEC7CE0FB01449150E041
:101F700080E80E94B00809CF973009F4BECF9830AE
:101F800021F481E08093F10000CF993009F0FDCE7B
:101F9000837009F0B2CFE3E1F1E081E031E096E354
:101FA0002191222371F08093E9003093EB00DF014F
:101FB00011972C912093EC009093ED008F5F873068
:101FC00079F78EE78093EA001092EA008F89809378
:101FD0006E02DBCE8B8D9C8D1092E90010925C021C
:101FE00010925B0290935A0280935902898D81115D
:101FF00092C08E899D89913A49F4813209F07DCF52
:1020000047E050E066E071E080E0B3CF913209F044
:1020100074CF833269F48F89988DB0E0A0E080930B
:10202000020190930301A0930401B0930501ADCE8A
:10203000803269F48091E80082FFFCCF67E086E09F
:1020400091E00E9407098BEF8093E8009ECE8232D8
:1020500009F09BCE8F8980930D01EEEFFFE785910C
:1020600094918B3F9C4D51F1E0E0F8E080910601A6
:1020700090910701A0910801B0910901803B944023
:10208000A105B105F1F480910D0180FD1AC0EE3F6C
:102090008AE0F80789F587E797E791838083809145
:1020A000600080935D0288E19BE00FB6F894A895EC
:1020B000809360000FBE9093600067CEEEEFFAE071
:1020C000D5CF808191818737974709F05ECEA8955B
:1020D0008091600088618093600080915D028093B0
:1020E0006000EE3F2AE0F20789F08091FE0A9091AD
:1020F000FF0A9183808349CE808191818737980739
:1021000051F29093FF0A8093FE0AC5CF1092FF0A06
:102110001092FE0A3ACE0E94ED07DC0112960D9154
:102120001C910115110509F4E8CED801ED91FC913F
:102130000190F081E02DBE016B5E7F4FC8010995D3
:10214000811123CEF80100851185EBCF18161906F1
:102150000CF41BCED2CEF1E0FF12BECE6FEC7CE0D1
:1021600004CF1F920F920FB60F9211242F933F931B
:102170008F939F93AF93BF9380916F029091700262
:10218000A0917102B09172023091420123E0230FBD
:102190002D3758F50196A11DB11D20934201809362
:1021A0006F0290937002A0937102B09372028091BB
:1021B000430190914401A0914501B09146010196DF
:1021C000A11DB11D8093430190934401A09345014B
:1021D000B0934601BF91AF919F918F913F912F9105
:1021E0000F900FBE0F901F90189526E8230F0296B0
:1021F000A11DB11DD2CF1F920F920FB60F921124C5
:102200002F933F934F935F936F937F938F939F93FE
:10221000AF93BF93EF93FF9380913E0190913F0165
:10222000A0914001B0914101892B8A2B8B2B09F49D
:1022300040C080913D0181110BC088B190E4892795
:1022400088B980913C01882319F088B1805888B9F9
:1022500080913E0190913F01A0914001B0914101D8
:10226000181619061A061B069CF480913E019091DF
:102270003F01A0914001B09141010197A109B1092D
:1022800080933E0190933F01A0934001B0934101A0
:10229000FF91EF91BF91AF919F918F917F916F913E
:1022A0005F914F913F912F910F900FBE0F901F9014
:1022B00018950E94320AECCFEF92FF920F931F9372
:1022C000CF93DF93F82E192FE62E042F81E0860F8F
:1022D000880F0E94820883E00E948208CF2DD12FB0
:1022E000EC0EFD2EF11CCE15DF05B9F007FF13C073
:1022F000FE0184910E948208182F80E00E948208CB
:10230000812321968111EFCFDF91CF911F910F9102
:10231000FF90EF9008958881EDCF81E0F5CFE3E95C
:10232000F6E01382128288EE93E0A0E0B0E08483AE
:102330009583A683B7838DE191E0918380838FEFAE
:102340009FEF95878487EBEFF6E0138212828FE28E
:1023500091E0918380838AEA96E09093F2068093DD
:10236000F10680E090E89093F0068093EF0646989F
:102370003E9A47983F9AE3EFF6E01382148286E094
:1023800085831682178280E1808380E290E09283C9
:1023900081830895CF93DF93CDB7DEB72E970FB625
:1023A000F894DEBF0FBECDBF789484B5826084BD43
:1023B00084B5816084BD85B5826085BD85B5816049
:1023C00085BD80916E00816080936E0010928100C7
:1023D0008091810082608093810080918100816082
:1023E0008093810080918000816080938000809143
:1023F0009100826080939100809191008160809330
:102400009100809190008160809390008091C10044
:1024100084608093C1008091C10082608093C1007C
:102420008091C10081608093C1008091C300816070
:102430008093C3008091C00082608093C00080912F
:10244000C20081608093C20080917A008460809392
:102450007A0080917A00826080937A0080917A007D
:10246000816080937A0080917A00806880937A00FE
:1024700010926E0210925E02109260028091D7005C
:1024800081608093D70080EA8093D80089B580610D
:1024900089BD89B5826089BD09B400FEFDCF61E0C8
:1024A00070E080E090E00E9466098091D8008F7C07
:1024B00080618093D8008091E000807F8093E0006D
:1024C0008091E1008E7E8093E1008DE08093E200B8
:1024D000559A209A81EC80937C0085B1806F85B9F4
:1024E00084B1877E84B984B1876E84B95E9A5F981F
:1024F0008AB1806D8AB9769A6E9881B3806F81BBFC
:10250000899880B38D7080BB80E58CBD81E08DBDE6
:1025100085E090E00E94DC0A5F9A85E090E00E94EE
:10252000DC0A5E985C98ECE5F6E089E696E024919A
:102530002EBD00000DB407FEFDCF31968E179F070C
:10254000B1F75C9A81E880936400809165008160B6
:10255000809365000E94070B80E80E94FC0A882394
:1025600081F085EA0E94E90A2E982F982D98809193
:10257000640080628093640081E083BF889513BE0D
:10258000FCCF84E00E94FC0A882309F448C02D98FF
:1025900084E80E94FC0A8823E1F00E94DA0A88ECB1
:1025A00090E00E94DC0A2F9882E090E00E949D1A41
:1025B0008F3F29F06FEF82E090E00E94A51A84EF30
:1025C00091E00E94DC0A2F9A84E80E94FC0A8111A3
:1025D000FBCF84E10E94FC0A8823E1F00E94DA0A22
:1025E00088EC90E00E94DC0A2E9882E090E00E9445
:1025F0009D1A882329F060E082E090E00E94A51AED
:1026000084EF91E00E94DC0A2E9A84E10E94FC0A89
:102610008111FBCF88EC90E00E94DC0AB2CF0E94CF
:10262000DA0A0E94FF0D81E090E00E94FD0D182F54
:10263000147081FF10C011112E9821EF3FEF3A83E3
:10264000298380E40E94FC0A882309F446C02E9A5C
:102650002F9A0E94DA0A82E390E00E94DC0A0E942C
:10266000E10A8111F8CF81E28093000187EA0E949C
:10267000E90A0E94FF0D809171008D7F80937100A7
:1026800081E080934B0189E696E090934A01809324
:10269000490190934801809347010E94320A0E94A9
:1026A000A30D6CE1862E912C8FB7F89440916F02A8
:1026B0005091700260917102709172028FBF1091FF
:1026C0004E01112309F471C010924E0180E090E098
:1026D000892B51F30E940000E4CF112339F0498186
:1026E0005A814430510511F42E9A2F9881E00E94AE
:1026F000A30700E128E54CEA55E069817A8184E18D
:1027000090E00E94AD060E94070B8FE090E00E94CF
:10271000DC0A69817A816F5F7F4F7A8369836931CF
:10272000710509F08ECF112311F02F9A2D9880E9B1
:1027300091E00E94DC0A0E94DA0A81E090E00E94A7
:10274000FD0D80FF88CF8AE090E00E94FD0D9FEF95
:10275000980F9E3F08F07FCF22E330E03093510284
:102760002093500228E330E030935302209352022A
:10277000EBE0F0E0FA83E983682F8BEF96E00E94AC
:10278000760B89819A810E94FD0D29813A812F5F04
:102790003F4F3A8329832131310571F70E94070B9E
:1027A00088EE93E00E94DC0A56CF80914F01342FCF
:1027B000381B832F90910001391748F48F5F8917D8
:1027C00008F084CF81E083BF889513BE7FCF81E07E
:1027D00080934E0140934F0180914C0190914D01A7
:1027E000019690934D0180934C0180915502809306
:1027F00054020E94E10A80935502812FE3E9F2E03E
:1028000081118FEF002481938193819381930394AD
:10281000D1F710925302109252021092510210926C
:102820005002809158028F5F809358026CE30E949F
:10283000161B909357021092560280E10E94FC0AE8
:10284000882319F091E09093560280E80E94F10AE3
:10285000882329F08091560282608093560280E49A
:102860000E94FC0A882329F080915602846080939C
:10287000560280E20E94FC0A882329F080915602C9
:10288000886080935602809156028093F906809169
:102890000101813009F08CC3809176028150823031
:1028A00008F4EFC0E0917902F0917A02FA83E983AB
:1028B000F7FF03C03796FA83E98329813A8153E011
:1028C000359527955A95E1F7265E3F4F3A83298340
:1028D000809183029091840249815A8184179507DF
:1028E0001CF40E94460CF4CF80917402882319F0E6
:1028F000815080937402F090F9068091F606F2FE02
:1029000067C18F5F84300CF061C18093F6068091BF
:1029100075022091F606022E000C330B280F311D94
:1029200037FF02C030E020E08091790290917A0276
:10293000280F391F30937A0220937902C9014E97EC
:1029400097FD57C190937802809377028091770228
:10295000522F581B5093F306C901089697FD07960E
:1029600043E0959587954A95E1F760E870E00E940D
:10297000361B97FF02C080589F4FFC01E053FE4F6B
:102980001081805B9E4FFC01F081F470FB83812FEE
:1029900090E0DC0190974091F4065091F5061F3FBE
:1029A000B9F0BA01605F7F4FFF2349F06A177B07D8
:1029B00034F0FC017F9701E0E617F70754F468173D
:1029C000790734F001E0FC013196E617F7070CF4C3
:1029D00000E06091560261FF03C068E060937302FB
:1029E00060917302662339F0002329F06BEF609346
:1029F000F7061092730260917302662319F061501A
:102A0000609373026091F706460F511D67FD5A955A
:102A10005093F5064093F4061F3FD1F0405F5F4F9F
:102A20007B81772309F4EAC0161694F4A417B5073E
:102A30000CF0E7C0BC0168517109641775070CF40C
:102A4000E0C0C0979093F5068093F4061092F706C5
:102A50008091580280FD08C08091F7068F5F863014
:102A60000CF0DCC08093F7068091F4069091F50697
:102A70009E878D87893491050CF4D2C082E08093C3
:102A800076024090770250907802720157FE03C0A0
:102A900037E0E30EF11CA3E0F594E794AA95E1F783
:102AA00042E0E41AF108F7FE02C0F12CE12C5201D9
:102AB00050E8A50EB11CB7FE03C067E0A60EB11C1E
:102AC000F3E0B594A794FA95E1F7AE14BF040CF4C3
:102AD000C2C16701E3E0CC0CDD1CEA95E1F7C41844
:102AE000D508C7018F779927FC01E053FE4F70810D
:102AF0007983805B9E4FFC01F081FB837F3F49F02F
:102B0000672F70E008E028E041E85CE0C6010E9421
:102B1000AD062B8120FF0EC039813F3F59F008E000
:102B200028E049E75CE0832F8850990BBC01C6017F
:102B30000E94AD069B8192FF0EC0E981EF3F59F0E4
:102B400008E028E041E75CE08E2F8052990BBC0141
:102B5000C6010E94AD069B8191FF0EC0E981EF3F47
:102B600059F000E120E141E55CE08E2F8851990B9E
:102B7000BC01C6010E94AD06EB818E2F90E073E090
:102B8000959587957A95E1F7837009F460C1F9818D
:102B9000FF3F09F45CC1813009F048C180915702C0
:102BA0002F2F2850330BB90108E028E049E45CE0FE
:102BB0008F3008F449C18E5108E028E049E35CE019
:102BC000803108F441C141E45CE03EC183E09DCE28
:102BD000F3FE06C081508D3F0CF097CE8DEF95CE61
:102BE000181614F4815091CE882309F490CE8F5F8B
:102BF0008CCE1092780210927702A8CE16160CF0A6
:102C000027CF841795070CF023CFBC01685F7F4F57
:102C1000641775070CF41CCF409714CF85E022CFC2
:102C2000F0FEE7C0ED85FE853396FA83E9838901DE
:102C30000D5F1F4FD9011D964D845E845DE0450EEA
:102C4000511CA80117FF02C0495F5F4F33E0559543
:102C500047953A95E1F75A0161E0A61AB108CD010E
:102C6000B7FD0796F3E095958795FA95E1F7FC0196
:102C70003196FE83ED839091F806F0917402FC8703
:102C80008091FA0623E0440F551F2A95E1F730E0C2
:102C900020E0BA01685071097C836B831A0171E0EE
:102CA000271A3108FA013896F887EF83BA0167507E
:102CB00071097A876987ED81FE81EA15FB050CF4BD
:102CC000A9C0B7FC90C0A5014F775527BA01605B3A
:102CD0007E4FFB01F081FB87F0FF26C06C85611100
:102CE00023C0BA0160537E4FFB0160816F3FE1F06A
:102CF00070E0E984FA84E20EF31EEA16FB0644F45F
:102D0000DD24D3947101E20EF31E0E151F050CF0A5
:102D1000D12CED85FE85E617F70734F4665071096E
:102D2000641575050CF4FAC26B8561FF2BC07C85B8
:102D3000711128C0BA0160537E4FFB0160816F3F63
:102D400009F170E06B01F8E1CF1AD108EB80FC804B
:102D5000E20EF31EEA16FB064CF477247394EF8020
:102D6000F884E20EF31E0E151F050CF0712CC4142E
:102D7000D50444F46D507109E981FA81E617F7072B
:102D80000CF4D9C2EB856E2F70E0E3E07595679582
:102D9000EA95E1F7F62FF3707F2E29F1BA0160531F
:102DA0007E4FFB0160816F3FF1F070E06B01F8E056
:102DB000CF1AD108EB80FC80E20EF31EEA16FB0668
:102DC00044F4662463947101E20EF31EE016F106EA
:102DD0000CF4612CC414D50434F4ED85FE85E6179B
:102DE000F7070CF4B1C2FFEFAF1ABF0A285F3F4FDD
:102DF00062CF4D855E855A83498319CF9250FCE39B
:102E0000FC8792CF62E07612A6C2882309F4A3C29F
:102E10008150A1C29093F8062C8520937402809370
:102E2000FA068E3108F42DCE81E029CE823079F475
:102E300049814850550BBA018091570208E028E0BB
:102E400041E35CE081FDBFCEC6010E94AD065FEFAD
:102E5000E51AF50A3ACE80917402882329F0809110
:102E600057028770843088F46091F4067091F506FB
:102E70008091F30690E02091F90620FF6BC000E1FD
:102E800020E14EE95BE00E94AD06109251021092E3
:102E9000500210925302109252028EE29CE00E9465
:102EA000D90B6091FA0670E090E080E04AE00E9461
:102EB000F80B89E29CE00E94D90B68E6E62EF12C23
:102EC00061E070E07A836983998191508091F8067E
:102ED000E981FA8141E25CE08E171F0609F034F4C3
:102EE00049E15CE0981710F441E15CE008E028E07B
:102EF00070E060E0C7010E94AD0629813A812E5F33
:102F00003F4F3A83298338E0E30EF11C49815A810F
:102F100047305105C9F680917602823041F50E9412
:102F20005B0B0E94280B84E290E090935102809307
:102F30005002909253028092520287E09CE00E94DD
:102F4000D90B88E00E94F10A882309F4C6C10E94C7
:102F5000A30DC3C12091570200E1223320F420E1E8
:102F60004EED5BE090CF20E14EEB5BE08CCF81300B
:102F700009F0B3C10E945B0B0E94280B6EE170E068
:102F800070935102609350029092530280925202C9
:102F90008EEF9BE00E94D90B88E00E94F10A882303
:102FA00009F49BC182E0809301010E94760795C1DC
:102FB000809189028150823008F4E7C12091870214
:102FC00080918A0290918B02019690938B0280935C
:102FD0008A02222319F021502093870280918E02C9
:102FE00090918F029A838983892BC1F00091F90611
:102FF000802F8E7F8093F906E981FA81EF2BD9F437
:1030000084E00E94F10A811102C001FF90C081E1B9
:1030100090E090938D0280938C020DC088E00E9416
:10302000FC0A9091F906811102C090FFDFCF9160F8
:103030009093F90611E080918C0290918D02009797
:1030400029F429813A8112161306C4F449815A8160
:10305000480F591F50938F0240938E02019790930F
:103060008D0280938C021416150644F010928F0284
:1030700010928E0210928D0210928C028091850225
:10308000909186029E5F492F5527209191023091A1
:103090009202241B350B30939202209391029927C0
:1030A000909386028093850280918E0290918F0288
:1030B00097FD03969595879595958795919581951B
:1030C0009109FC01B89644E14093F306F093F506AC
:1030D000E093F40663E070E0111102C061E070E07B
:1030E00040919002413029F54CE150E0C7964817D5
:1030F000590744F46E0F7F1F425F5F4F4617570713
:103100000CF030C18091880281111DC0243031053E
:103110000CF03BC191E0909388028091FA068F5F9A
:103120008093FA06893178F0909389022EC110E0DD
:1031300082CF48E250E0DACF81508093F8068CE3EA
:1031400080938702DFCF203F3F4F0CF01EC10E94CB
:10315000451A29E130E040E050E00E94B31A64577C
:103160007F4F70939202609391020E94451A23E070
:1031700030E040E050E00E94B31A60939002109259
:10318000880203C1712F7195798388E9811B8B8334
:1031900089818F7741E06CE370E090E00E940A0B38
:1031A00099819D5E9983EB81E913F2CF8091900222
:1031B000882349F043E45BE06CE170E0813039F052
:1031C00043E25BE002C043E65BE068E270E000E1FE
:1031D00020E180919102909192020E94AD0680912F
:1031E0008702882329F0809157028770843020F568
:1031F0008091F9064EE95BE080FD13C080918E025C
:1032000090918F021816190654F0812F9F2D66E0B9
:1032100070E00E94221B4EEB5BE060FD02C04EEDB1
:103220005BE06091F4067091F5068091F30600E191
:1032300020E190E00E94AD061092510210925002DF
:1032400010925302109252028BE99BE00E94D90B1C
:103250006091FA0670E090E080E04AE00E94F80B8E
:1032600089E99BE00E94D90B4AE069E170E080E0C7
:1032700090E00E94F80B20E630E03093510220935A
:103280005002109253021092520286E99BE00E9473
:10329000D90B6091F80670E090E080E04AE00E946F
:1032A000F80B3091890239833230D1F40E945B0BE4
:1032B0000E94280B84E290E0909351028093500288
:1032C00090925302809252028CE89BE00E94D90BAC
:1032D00088E00E94F10A811168CE0E94070BF6C9AE
:1032E00049814130D1F70E945B0B0E94280B6EE1AF
:1032F00070E070935102609350029092530280925A
:10330000520283E89BE00E94D90B88E00E94F10AF8
:10331000882319F379817093010119CEDD2009F416
:1033200003CD933008F06ACD109274028093FA06B0
:103330001092F806A3CB772009F424CD9230A0F3A5
:103340009150FCE3FC871ECD662009F44CCDF1E0E2
:103350007F1258CD8F5F405B5E4F7B85777EFA0191
:10336000708341CDC9010A97459708F0CBCE809173
:1033700087028111C7CE8091F806823008F0DCCE3A
:103380001092F80682E0809389021A82198200E086
:1033900010918A02F0908B0289819A8165E170E038
:1033A0000E94361B9C01245F3F4F812F9F2D63E0BD
:1033B00070E00E94221B802F861B8F7741E0B901AD
:1033C00090E00E940A0B035E69817A81695F7F4FFA
:1033D0007A8369836F337105D9F6E3E1F6E091E80A
:1033E000915009F4CFCE8191DF01119781608C93C8
:1033F000F7CF8F929F92AF92BF92CF92DF92EF92D0
:10340000FF92CF93DF93EC01688179818A819B8160
:10341000611571058105910521F464E279ED8BE573
:1034200097E02DE133EF41E050E00E94B31A4901EB
:103430005A019B01AC01A7EAB1E40E94D21A6B01C8
:103440007C01ACEEB4EFA50194010E94E01AC60E17
:10345000D71EE81EF91EF7FE06C081E0C81AD10883
:10346000E10880E8F80AC882D982EA82FB82C701B3
:10347000B6019F77DF91CF91FF90EF90DF90CF90D3
:10348000BF90AF909F908F9008958F929F92AF9230
:10349000BF92CF92DF92EF92FF9260910E017091F6
:1034A0000F01809110019091110161157105810545
:1034B000910521F464E279ED8BE597E02DE133EF9E
:1034C00041E050E00E94B31A49015A019B01AC014E
:1034D000A7EAB1E40E94D21A6B017C01ACEEB4EF12
:1034E000A50194010E94E01AC60ED71EE81EF91E1F
:1034F000F7FE06C081E0C81AD108E10880E8F80AA2
:10350000C0920E01D0920F01E0921001F0921101D1
:10351000C701B6019F77FF90EF90DF90CF90BF90EB
:10352000AF909F908F90089560930E0170930F015C
:1035300080931001909311010895F999FECF92BDE7
:1035400081BDF89A992780B50895262FF999FECF65
:103550001FBA92BD81BD20BD0FB6F894FA9AF99AB0
:103560000FBE01960895052E97FB1EF400940E944D
:10357000CA1A57FD07D00E94E51A07FC03D04EF483
:103580000C94CA1A50954095309521953F4F4F4F56
:103590005F4F089590958095709561957F4F8F4FFF
:1035A0009F4F08950E94071BA59F900DB49F900DFB
:1035B000A49F800D911D11240895B7FF0C94D21A79
:1035C0000E94D21A821B930B0895A1E21A2EAA1B05
:1035D000BB1BFD010DC0AA1FBB1FEE1FFF1FA217C3
:1035E000B307E407F50720F0A21BB30BE40BF50BC0
:1035F000661F771F881F991F1A9469F76095709549
:10360000809590959B01AC01BD01CF010895A29FCB
:10361000B001B39FC001A39F700D811D1124911DA6
:10362000B29F700D811D1124911D0895991B79E0A1
:1036300004C0991F961708F0961B881F7A95C9F742
:1036400080950895AA1BBB1B51E107C0AA1FBB1F91
:10365000A617B70710F0A61BB70B881F991F5A951E
:10366000A9F780959095BC01CD01089597FB072E91
:1036700016F4009407D077FD09D00E94221B07FCA6
:1036800005D03EF4909581959F4F08957095619572
:103690007F4F0895EE0FFF1F0590F491E02D0994E0
:0436A000F894FFCFCC
:1036A4001001FFFFFFFF00E1000000000000010027
:1036B400000000C1808100000000000000010899A2
:1036C4000922081708680826084408000000007644
:0836D4000B1409F50BF40B00C7
:00000001FF
